{
  "_format": "hh-sol-artifact-1",
  "contractName": "NFTMock",
  "sourceName": "contracts/NFTMock.sol",
  "abi": [
    {
      "inputs": [],
      "stateMutability": "nonpayable",
      "type": "constructor"
    },
    {
      "anonymous": false,
      "inputs": [
        {
          "indexed": true,
          "internalType": "address",
          "name": "owner",
          "type": "address"
        },
        {
          "indexed": true,
          "internalType": "address",
          "name": "approved",
          "type": "address"
        },
        {
          "indexed": true,
          "internalType": "uint256",
          "name": "tokenId",
          "type": "uint256"
        }
      ],
      "name": "Approval",
      "type": "event"
    },
    {
      "anonymous": false,
      "inputs": [
        {
          "indexed": true,
          "internalType": "address",
          "name": "owner",
          "type": "address"
        },
        {
          "indexed": true,
          "internalType": "address",
          "name": "operator",
          "type": "address"
        },
        {
          "indexed": false,
          "internalType": "bool",
          "name": "approved",
          "type": "bool"
        }
      ],
      "name": "ApprovalForAll",
      "type": "event"
    },
    {
      "anonymous": false,
      "inputs": [
        {
          "indexed": true,
          "internalType": "address",
          "name": "from",
          "type": "address"
        },
        {
          "indexed": true,
          "internalType": "address",
          "name": "to",
          "type": "address"
        },
        {
          "indexed": true,
          "internalType": "uint256",
          "name": "tokenId",
          "type": "uint256"
        }
      ],
      "name": "Transfer",
      "type": "event"
    },
    {
      "inputs": [
        {
          "internalType": "address",
          "name": "to",
          "type": "address"
        },
        {
          "internalType": "uint256",
          "name": "tokenId",
          "type": "uint256"
        }
      ],
      "name": "approve",
      "outputs": [],
      "stateMutability": "nonpayable",
      "type": "function"
    },
    {
      "inputs": [
        {
          "internalType": "address",
          "name": "owner",
          "type": "address"
        }
      ],
      "name": "balanceOf",
      "outputs": [
        {
          "internalType": "uint256",
          "name": "",
          "type": "uint256"
        }
      ],
      "stateMutability": "view",
      "type": "function"
    },
    {
      "inputs": [],
      "name": "currentTokenId",
      "outputs": [
        {
          "internalType": "uint256",
          "name": "",
          "type": "uint256"
        }
      ],
      "stateMutability": "view",
      "type": "function"
    },
    {
      "inputs": [
        {
          "internalType": "uint256",
          "name": "tokenId",
          "type": "uint256"
        }
      ],
      "name": "getApproved",
      "outputs": [
        {
          "internalType": "address",
          "name": "",
          "type": "address"
        }
      ],
      "stateMutability": "view",
      "type": "function"
    },
    {
      "inputs": [
        {
          "internalType": "address",
          "name": "owner",
          "type": "address"
        },
        {
          "internalType": "address",
          "name": "operator",
          "type": "address"
        }
      ],
      "name": "isApprovedForAll",
      "outputs": [
        {
          "internalType": "bool",
          "name": "",
          "type": "bool"
        }
      ],
      "stateMutability": "view",
      "type": "function"
    },
    {
      "inputs": [],
      "name": "mint",
      "outputs": [],
      "stateMutability": "nonpayable",
      "type": "function"
    },
    {
      "inputs": [],
      "name": "name",
      "outputs": [
        {
          "internalType": "string",
          "name": "",
          "type": "string"
        }
      ],
      "stateMutability": "view",
      "type": "function"
    },
    {
      "inputs": [
        {
          "internalType": "uint256",
          "name": "tokenId",
          "type": "uint256"
        }
      ],
      "name": "ownerOf",
      "outputs": [
        {
          "internalType": "address",
          "name": "",
          "type": "address"
        }
      ],
      "stateMutability": "view",
      "type": "function"
    },
    {
      "inputs": [
        {
          "internalType": "address",
          "name": "from",
          "type": "address"
        },
        {
          "internalType": "address",
          "name": "to",
          "type": "address"
        },
        {
          "internalType": "uint256",
          "name": "tokenId",
          "type": "uint256"
        }
      ],
      "name": "safeTransferFrom",
      "outputs": [],
      "stateMutability": "nonpayable",
      "type": "function"
    },
    {
      "inputs": [
        {
          "internalType": "address",
          "name": "from",
          "type": "address"
        },
        {
          "internalType": "address",
          "name": "to",
          "type": "address"
        },
        {
          "internalType": "uint256",
          "name": "tokenId",
          "type": "uint256"
        },
        {
          "internalType": "bytes",
          "name": "data",
          "type": "bytes"
        }
      ],
      "name": "safeTransferFrom",
      "outputs": [],
      "stateMutability": "nonpayable",
      "type": "function"
    },
    {
      "inputs": [
        {
          "internalType": "address",
          "name": "operator",
          "type": "address"
        },
        {
          "internalType": "bool",
          "name": "approved",
          "type": "bool"
        }
      ],
      "name": "setApprovalForAll",
      "outputs": [],
      "stateMutability": "nonpayable",
      "type": "function"
    },
    {
      "inputs": [
        {
          "internalType": "bytes4",
          "name": "interfaceId",
          "type": "bytes4"
        }
      ],
      "name": "supportsInterface",
      "outputs": [
        {
          "internalType": "bool",
          "name": "",
          "type": "bool"
        }
      ],
      "stateMutability": "view",
      "type": "function"
    },
    {
      "inputs": [],
      "name": "symbol",
      "outputs": [
        {
          "internalType": "string",
          "name": "",
          "type": "string"
        }
      ],
      "stateMutability": "view",
      "type": "function"
    },
    {
      "inputs": [
        {
          "internalType": "uint256",
          "name": "tokenId",
          "type": "uint256"
        }
      ],
      "name": "tokenURI",
      "outputs": [
        {
          "internalType": "string",
          "name": "",
          "type": "string"
        }
      ],
      "stateMutability": "view",
      "type": "function"
    },
    {
      "inputs": [
        {
          "internalType": "address",
          "name": "from",
          "type": "address"
        },
        {
          "internalType": "address",
          "name": "to",
          "type": "address"
        },
        {
          "internalType": "uint256",
          "name": "tokenId",
          "type": "uint256"
        }
      ],
      "name": "transferFrom",
      "outputs": [],
      "stateMutability": "nonpayable",
      "type": "function"
    }
  ],
  "bytecode": "0x608060405234801561001057600080fd5b506040518060400160405280600481526020017f54657374000000000000000000000000000000000000000000000000000000008152506040518060400160405280600381526020017f5453540000000000000000000000000000000000000000000000000000000000815250816000908161008c91906102fc565b50806001908161009c91906102fc565b50505060016006819055506103ce565b600081519050919050565b7f4e487b7100000000000000000000000000000000000000000000000000000000600052604160045260246000fd5b7f4e487b7100000000000000000000000000000000000000000000000000000000600052602260045260246000fd5b6000600282049050600182168061012d57607f821691505b6020821081036101405761013f6100e6565b5b50919050565b60008190508160005260206000209050919050565b60006020601f8301049050919050565b600082821b905092915050565b6000600883026101a87fffffffffffffffffffffffffffffffffffffffffffffffffffffffffffffffff8261016b565b6101b2868361016b565b95508019841693508086168417925050509392505050565b6000819050919050565b6000819050919050565b60006101f96101f46101ef846101ca565b6101d4565b6101ca565b9050919050565b6000819050919050565b610213836101de565b61022761021f82610200565b848454610178565b825550505050565b600090565b61023c61022f565b61024781848461020a565b505050565b5b8181101561026b57610260600082610234565b60018101905061024d565b5050565b601f8211156102b05761028181610146565b61028a8461015b565b81016020851015610299578190505b6102ad6102a58561015b565b83018261024c565b50505b505050565b600082821c905092915050565b60006102d3600019846008026102b5565b1980831691505092915050565b60006102ec83836102c2565b9150826002028217905092915050565b610305826100ac565b67ffffffffffffffff81111561031e5761031d6100b7565b5b6103288254610115565b61033382828561026f565b600060209050601f8311600181146103665760008415610354578287015190505b61035e85826102e0565b8655506103c6565b601f19841661037486610146565b60005b8281101561039c57848901518255600182019150602085019450602081019050610377565b868310156103b957848901516103b5601f8916826102c2565b8355505b6001600288020188555050505b505050505050565b61257e806103dd6000396000f3fe608060405234801561001057600080fd5b50600436106100f45760003560e01c806342842e0e11610097578063a22cb46511610066578063a22cb46514610271578063b88d4fde1461028d578063c87b56dd146102a9578063e985e9c5146102d9576100f4565b806342842e0e146101d75780636352211e146101f357806370a082311461022357806395d89b4114610253576100f4565b8063081812fc116100d3578063081812fc14610165578063095ea7b3146101955780631249c58b146101b157806323b872dd146101bb576100f4565b80629a9b7b146100f957806301ffc9a71461011757806306fdde0314610147575b600080fd5b610101610309565b60405161010e91906117b0565b60405180910390f35b610131600480360381019061012c9190611837565b61030f565b60405161013e919061187f565b60405180910390f35b61014f6103f1565b60405161015c919061192a565b60405180910390f35b61017f600480360381019061017a9190611978565b610483565b60405161018c91906119e6565b60405180910390f35b6101af60048036038101906101aa9190611a2d565b6104c9565b005b6101b96105e0565b005b6101d560048036038101906101d09190611a6d565b610606565b005b6101f160048036038101906101ec9190611a6d565b610666565b005b61020d60048036038101906102089190611978565b610686565b60405161021a91906119e6565b60405180910390f35b61023d60048036038101906102389190611ac0565b61070c565b60405161024a91906117b0565b60405180910390f35b61025b6107c3565b604051610268919061192a565b60405180910390f35b61028b60048036038101906102869190611b19565b610855565b005b6102a760048036038101906102a29190611c8e565b61086b565b005b6102c360048036038101906102be9190611978565b6108cd565b6040516102d0919061192a565b60405180910390f35b6102f360048036038101906102ee9190611d11565b610935565b604051610300919061187f565b60405180910390f35b60065481565b60007f80ac58cd000000000000000000000000000000000000000000000000000000007bffffffffffffffffffffffffffffffffffffffffffffffffffffffff1916827bffffffffffffffffffffffffffffffffffffffffffffffffffffffff191614806103da57507f5b5e139f000000000000000000000000000000000000000000000000000000007bffffffffffffffffffffffffffffffffffffffffffffffffffffffff1916827bffffffffffffffffffffffffffffffffffffffffffffffffffffffff1916145b806103ea57506103e9826109c9565b5b9050919050565b60606000805461040090611d80565b80601f016020809104026020016040519081016040528092919081815260200182805461042c90611d80565b80156104795780601f1061044e57610100808354040283529160200191610479565b820191906000526020600020905b81548152906001019060200180831161045c57829003601f168201915b5050505050905090565b600061048e82610a33565b6004600083815260200190815260200160002060009054906101000a900473ffffffffffffffffffffffffffffffffffffffff169050919050565b60006104d482610686565b90508073ffffffffffffffffffffffffffffffffffffffff168373ffffffffffffffffffffffffffffffffffffffff1603610544576040517f08c379a000000000000000000000000000000000000000000000000000000000815260040161053b90611e23565b60405180910390fd5b8073ffffffffffffffffffffffffffffffffffffffff16610563610a7e565b73ffffffffffffffffffffffffffffffffffffffff16148061059257506105918161058c610a7e565b610935565b5b6105d1576040517f08c379a00000000000000000000000000000000000000000000000000000000081526004016105c890611eb5565b60405180910390fd5b6105db8383610a86565b505050565b6105ec33600654610b3f565b600660008154809291906105ff90611f04565b9190505550565b610617610611610a7e565b82610b5d565b610656576040517f08c379a000000000000000000000000000000000000000000000000000000000815260040161064d90611fbe565b60405180910390fd5b610661838383610bf2565b505050565b6106818383836040518060200160405280600081525061086b565b505050565b60008061069283610eeb565b9050600073ffffffffffffffffffffffffffffffffffffffff168173ffffffffffffffffffffffffffffffffffffffff1603610703576040517f08c379a00000000000000000000000000000000000000000000000000000000081526004016106fa9061202a565b60405180910390fd5b80915050919050565b60008073ffffffffffffffffffffffffffffffffffffffff168273ffffffffffffffffffffffffffffffffffffffff160361077c576040517f08c379a0000000000000000000000000000000000000000000000000000000008152600401610773906120bc565b60405180910390fd5b600360008373ffffffffffffffffffffffffffffffffffffffff1673ffffffffffffffffffffffffffffffffffffffff168152602001908152602001600020549050919050565b6060600180546107d290611d80565b80601f01602080910402602001604051908101604052809291908181526020018280546107fe90611d80565b801561084b5780601f106108205761010080835404028352916020019161084b565b820191906000526020600020905b81548152906001019060200180831161082e57829003601f168201915b5050505050905090565b610867610860610a7e565b8383610f28565b5050565b61087c610876610a7e565b83610b5d565b6108bb576040517f08c379a00000000000000000000000000000000000000000000000000000000081526004016108b290611fbe565b60405180910390fd5b6108c784848484611094565b50505050565b60606108d882610a33565b60006108e26110f0565b90506000815111610902576040518060200160405280600081525061092d565b8061090c84611107565b60405160200161091d929190612118565b6040516020818303038152906040525b915050919050565b6000600560008473ffffffffffffffffffffffffffffffffffffffff1673ffffffffffffffffffffffffffffffffffffffff16815260200190815260200160002060008373ffffffffffffffffffffffffffffffffffffffff1673ffffffffffffffffffffffffffffffffffffffff16815260200190815260200160002060009054906101000a900460ff16905092915050565b60007f01ffc9a7000000000000000000000000000000000000000000000000000000007bffffffffffffffffffffffffffffffffffffffffffffffffffffffff1916827bffffffffffffffffffffffffffffffffffffffffffffffffffffffff1916149050919050565b610a3c816111d5565b610a7b576040517f08c379a0000000000000000000000000000000000000000000000000000000008152600401610a729061202a565b60405180910390fd5b50565b600033905090565b816004600083815260200190815260200160002060006101000a81548173ffffffffffffffffffffffffffffffffffffffff021916908373ffffffffffffffffffffffffffffffffffffffff160217905550808273ffffffffffffffffffffffffffffffffffffffff16610af983610686565b73ffffffffffffffffffffffffffffffffffffffff167f8c5be1e5ebec7d5bd14f71427d1e84f3dd0314c0f7b2291e5b200ac8c7c3b92560405160405180910390a45050565b610b59828260405180602001604052806000815250611216565b5050565b600080610b6983610686565b90508073ffffffffffffffffffffffffffffffffffffffff168473ffffffffffffffffffffffffffffffffffffffff161480610bab5750610baa8185610935565b5b80610be957508373ffffffffffffffffffffffffffffffffffffffff16610bd184610483565b73ffffffffffffffffffffffffffffffffffffffff16145b91505092915050565b8273ffffffffffffffffffffffffffffffffffffffff16610c1282610686565b73ffffffffffffffffffffffffffffffffffffffff1614610c68576040517f08c379a0000000000000000000000000000000000000000000000000000000008152600401610c5f906121ae565b60405180910390fd5b600073ffffffffffffffffffffffffffffffffffffffff168273ffffffffffffffffffffffffffffffffffffffff1603610cd7576040517f08c379a0000000000000000000000000000000000000000000000000000000008152600401610cce90612240565b60405180910390fd5b610ce48383836001611271565b8273ffffffffffffffffffffffffffffffffffffffff16610d0482610686565b73ffffffffffffffffffffffffffffffffffffffff1614610d5a576040517f08c379a0000000000000000000000000000000000000000000000000000000008152600401610d51906121ae565b60405180910390fd5b6004600082815260200190815260200160002060006101000a81549073ffffffffffffffffffffffffffffffffffffffff02191690556001600360008573ffffffffffffffffffffffffffffffffffffffff1673ffffffffffffffffffffffffffffffffffffffff168152602001908152602001600020600082825403925050819055506001600360008473ffffffffffffffffffffffffffffffffffffffff1673ffffffffffffffffffffffffffffffffffffffff16815260200190815260200160002060008282540192505081905550816002600083815260200190815260200160002060006101000a81548173ffffffffffffffffffffffffffffffffffffffff021916908373ffffffffffffffffffffffffffffffffffffffff160217905550808273ffffffffffffffffffffffffffffffffffffffff168473ffffffffffffffffffffffffffffffffffffffff167fddf252ad1be2c89b69c2b068fc378daa952ba7f163c4a11628f55a4df523b3ef60405160405180910390a4610ee68383836001611277565b505050565b60006002600083815260200190815260200160002060009054906101000a900473ffffffffffffffffffffffffffffffffffffffff169050919050565b8173ffffffffffffffffffffffffffffffffffffffff168373ffffffffffffffffffffffffffffffffffffffff1603610f96576040517f08c379a0000000000000000000000000000000000000000000000000000000008152600401610f8d906122ac565b60405180910390fd5b80600560008573ffffffffffffffffffffffffffffffffffffffff1673ffffffffffffffffffffffffffffffffffffffff16815260200190815260200160002060008473ffffffffffffffffffffffffffffffffffffffff1673ffffffffffffffffffffffffffffffffffffffff16815260200190815260200160002060006101000a81548160ff0219169083151502179055508173ffffffffffffffffffffffffffffffffffffffff168373ffffffffffffffffffffffffffffffffffffffff167f17307eab39ab6107e8899845ad3d59bd9653f200f220920489ca2b5937696c3183604051611087919061187f565b60405180910390a3505050565b61109f848484610bf2565b6110ab8484848461127d565b6110ea576040517f08c379a00000000000000000000000000000000000000000000000000000000081526004016110e19061233e565b60405180910390fd5b50505050565b606060405180602001604052806000815250905090565b60606000600161111684611404565b01905060008167ffffffffffffffff81111561113557611134611b63565b5b6040519080825280601f01601f1916602001820160405280156111675781602001600182028036833780820191505090505b509050600082602001820190505b6001156111ca578080600190039150507f3031323334353637383961626364656600000000000000000000000000000000600a86061a8153600a85816111be576111bd61235e565b5b04945060008503611175575b819350505050919050565b60008073ffffffffffffffffffffffffffffffffffffffff166111f783610eeb565b73ffffffffffffffffffffffffffffffffffffffff1614159050919050565b6112208383611557565b61122d600084848461127d565b61126c576040517f08c379a00000000000000000000000000000000000000000000000000000000081526004016112639061233e565b60405180910390fd5b505050565b50505050565b50505050565b600061129e8473ffffffffffffffffffffffffffffffffffffffff16611774565b156113f7578373ffffffffffffffffffffffffffffffffffffffff1663150b7a026112c7610a7e565b8786866040518563ffffffff1660e01b81526004016112e994939291906123e2565b6020604051808303816000875af192505050801561132557506040513d601f19601f820116820180604052508101906113229190612443565b60015b6113a7573d8060008114611355576040519150601f19603f3d011682016040523d82523d6000602084013e61135a565b606091505b50600081510361139f576040517f08c379a00000000000000000000000000000000000000000000000000000000081526004016113969061233e565b60405180910390fd5b805181602001fd5b63150b7a0260e01b7bffffffffffffffffffffffffffffffffffffffffffffffffffffffff1916817bffffffffffffffffffffffffffffffffffffffffffffffffffffffff1916149150506113fc565b600190505b949350505050565b600080600090507a184f03e93ff9f4daa797ed6e38ed64bf6a1f0100000000000000008310611462577a184f03e93ff9f4daa797ed6e38ed64bf6a1f01000000000000000083816114585761145761235e565b5b0492506040810190505b6d04ee2d6d415b85acef8100000000831061149f576d04ee2d6d415b85acef810000000083816114955761149461235e565b5b0492506020810190505b662386f26fc1000083106114ce57662386f26fc1000083816114c4576114c361235e565b5b0492506010810190505b6305f5e10083106114f7576305f5e10083816114ed576114ec61235e565b5b0492506008810190505b612710831061151c5761271083816115125761151161235e565b5b0492506004810190505b6064831061153f57606483816115355761153461235e565b5b0492506002810190505b600a831061154e576001810190505b80915050919050565b600073ffffffffffffffffffffffffffffffffffffffff168273ffffffffffffffffffffffffffffffffffffffff16036115c6576040517f08c379a00000000000000000000000000000000000000000000000000000000081526004016115bd906124bc565b60405180910390fd5b6115cf816111d5565b1561160f576040517f08c379a000000000000000000000000000000000000000000000000000000000815260040161160690612528565b60405180910390fd5b61161d600083836001611271565b611626816111d5565b15611666576040517f08c379a000000000000000000000000000000000000000000000000000000000815260040161165d90612528565b60405180910390fd5b6001600360008473ffffffffffffffffffffffffffffffffffffffff1673ffffffffffffffffffffffffffffffffffffffff16815260200190815260200160002060008282540192505081905550816002600083815260200190815260200160002060006101000a81548173ffffffffffffffffffffffffffffffffffffffff021916908373ffffffffffffffffffffffffffffffffffffffff160217905550808273ffffffffffffffffffffffffffffffffffffffff16600073ffffffffffffffffffffffffffffffffffffffff167fddf252ad1be2c89b69c2b068fc378daa952ba7f163c4a11628f55a4df523b3ef60405160405180910390a4611770600083836001611277565b5050565b6000808273ffffffffffffffffffffffffffffffffffffffff163b119050919050565b6000819050919050565b6117aa81611797565b82525050565b60006020820190506117c560008301846117a1565b92915050565b6000604051905090565b600080fd5b600080fd5b60007fffffffff0000000000000000000000000000000000000000000000000000000082169050919050565b611814816117df565b811461181f57600080fd5b50565b6000813590506118318161180b565b92915050565b60006020828403121561184d5761184c6117d5565b5b600061185b84828501611822565b91505092915050565b60008115159050919050565b61187981611864565b82525050565b60006020820190506118946000830184611870565b92915050565b600081519050919050565b600082825260208201905092915050565b60005b838110156118d45780820151818401526020810190506118b9565b60008484015250505050565b6000601f19601f8301169050919050565b60006118fc8261189a565b61190681856118a5565b93506119168185602086016118b6565b61191f816118e0565b840191505092915050565b6000602082019050818103600083015261194481846118f1565b905092915050565b61195581611797565b811461196057600080fd5b50565b6000813590506119728161194c565b92915050565b60006020828403121561198e5761198d6117d5565b5b600061199c84828501611963565b91505092915050565b600073ffffffffffffffffffffffffffffffffffffffff82169050919050565b60006119d0826119a5565b9050919050565b6119e0816119c5565b82525050565b60006020820190506119fb60008301846119d7565b92915050565b611a0a816119c5565b8114611a1557600080fd5b50565b600081359050611a2781611a01565b92915050565b60008060408385031215611a4457611a436117d5565b5b6000611a5285828601611a18565b9250506020611a6385828601611963565b9150509250929050565b600080600060608486031215611a8657611a856117d5565b5b6000611a9486828701611a18565b9350506020611aa586828701611a18565b9250506040611ab686828701611963565b9150509250925092565b600060208284031215611ad657611ad56117d5565b5b6000611ae484828501611a18565b91505092915050565b611af681611864565b8114611b0157600080fd5b50565b600081359050611b1381611aed565b92915050565b60008060408385031215611b3057611b2f6117d5565b5b6000611b3e85828601611a18565b9250506020611b4f85828601611b04565b9150509250929050565b600080fd5b600080fd5b7f4e487b7100000000000000000000000000000000000000000000000000000000600052604160045260246000fd5b611b9b826118e0565b810181811067ffffffffffffffff82111715611bba57611bb9611b63565b5b80604052505050565b6000611bcd6117cb565b9050611bd98282611b92565b919050565b600067ffffffffffffffff821115611bf957611bf8611b63565b5b611c02826118e0565b9050602081019050919050565b82818337600083830152505050565b6000611c31611c2c84611bde565b611bc3565b905082815260208101848484011115611c4d57611c4c611b5e565b5b611c58848285611c0f565b509392505050565b600082601f830112611c7557611c74611b59565b5b8135611c85848260208601611c1e565b91505092915050565b60008060008060808587031215611ca857611ca76117d5565b5b6000611cb687828801611a18565b9450506020611cc787828801611a18565b9350506040611cd887828801611963565b925050606085013567ffffffffffffffff811115611cf957611cf86117da565b5b611d0587828801611c60565b91505092959194509250565b60008060408385031215611d2857611d276117d5565b5b6000611d3685828601611a18565b9250506020611d4785828601611a18565b9150509250929050565b7f4e487b7100000000000000000000000000000000000000000000000000000000600052602260045260246000fd5b60006002820490506001821680611d9857607f821691505b602082108103611dab57611daa611d51565b5b50919050565b7f4552433732313a20617070726f76616c20746f2063757272656e74206f776e6560008201527f7200000000000000000000000000000000000000000000000000000000000000602082015250565b6000611e0d6021836118a5565b9150611e1882611db1565b604082019050919050565b60006020820190508181036000830152611e3c81611e00565b9050919050565b7f4552433732313a20617070726f76652063616c6c6572206973206e6f7420746f60008201527f6b656e206f776e6572206f7220617070726f76656420666f7220616c6c000000602082015250565b6000611e9f603d836118a5565b9150611eaa82611e43565b604082019050919050565b60006020820190508181036000830152611ece81611e92565b9050919050565b7f4e487b7100000000000000000000000000000000000000000000000000000000600052601160045260246000fd5b6000611f0f82611797565b91507fffffffffffffffffffffffffffffffffffffffffffffffffffffffffffffffff8203611f4157611f40611ed5565b5b600182019050919050565b7f4552433732313a2063616c6c6572206973206e6f7420746f6b656e206f776e6560008201527f72206f7220617070726f76656400000000000000000000000000000000000000602082015250565b6000611fa8602d836118a5565b9150611fb382611f4c565b604082019050919050565b60006020820190508181036000830152611fd781611f9b565b9050919050565b7f4552433732313a20696e76616c696420746f6b656e2049440000000000000000600082015250565b60006120146018836118a5565b915061201f82611fde565b602082019050919050565b6000602082019050818103600083015261204381612007565b9050919050565b7f4552433732313a2061646472657373207a65726f206973206e6f74206120766160008201527f6c6964206f776e65720000000000000000000000000000000000000000000000602082015250565b60006120a66029836118a5565b91506120b18261204a565b604082019050919050565b600060208201905081810360008301526120d581612099565b9050919050565b600081905092915050565b60006120f28261189a565b6120fc81856120dc565b935061210c8185602086016118b6565b80840191505092915050565b600061212482856120e7565b915061213082846120e7565b91508190509392505050565b7f4552433732313a207472616e736665722066726f6d20696e636f72726563742060008201527f6f776e6572000000000000000000000000000000000000000000000000000000602082015250565b60006121986025836118a5565b91506121a38261213c565b604082019050919050565b600060208201905081810360008301526121c78161218b565b9050919050565b7f4552433732313a207472616e7366657220746f20746865207a65726f2061646460008201527f7265737300000000000000000000000000000000000000000000000000000000602082015250565b600061222a6024836118a5565b9150612235826121ce565b604082019050919050565b600060208201905081810360008301526122598161221d565b9050919050565b7f4552433732313a20617070726f766520746f2063616c6c657200000000000000600082015250565b60006122966019836118a5565b91506122a182612260565b602082019050919050565b600060208201905081810360008301526122c581612289565b9050919050565b7f4552433732313a207472616e7366657220746f206e6f6e20455243373231526560008201527f63656976657220696d706c656d656e7465720000000000000000000000000000602082015250565b60006123286032836118a5565b9150612333826122cc565b604082019050919050565b600060208201905081810360008301526123578161231b565b9050919050565b7f4e487b7100000000000000000000000000000000000000000000000000000000600052601260045260246000fd5b600081519050919050565b600082825260208201905092915050565b60006123b48261238d565b6123be8185612398565b93506123ce8185602086016118b6565b6123d7816118e0565b840191505092915050565b60006080820190506123f760008301876119d7565b61240460208301866119d7565b61241160408301856117a1565b818103606083015261242381846123a9565b905095945050505050565b60008151905061243d8161180b565b92915050565b600060208284031215612459576124586117d5565b5b60006124678482850161242e565b91505092915050565b7f4552433732313a206d696e7420746f20746865207a65726f2061646472657373600082015250565b60006124a66020836118a5565b91506124b182612470565b602082019050919050565b600060208201905081810360008301526124d581612499565b9050919050565b7f4552433732313a20746f6b656e20616c7265616479206d696e74656400000000600082015250565b6000612512601c836118a5565b915061251d826124dc565b602082019050919050565b6000602082019050818103600083015261254181612505565b905091905056fea2646970667358221220ada89150c5d72aaf83fd35515ab6e67df75e9d0b0f8827fe1173d36182b4852a64736f6c63430008190033",
  "linkReferences": {},
  "deployedLinkReferences": {}
}