{
  "_format": "hh-sol-artifact-1",
  "contractName": "NFTPackedOwnersResolver",
  "sourceName": "contracts/NFTPackedOwnersResolver.sol",
  "abi": [
    {
      "inputs": [
        {
          "internalType": "contract IEVMVerifier",
          "name": "_verifier",
          "type": "address"
        },
        {
          "internalType": "contract ENS",
          "name": "_ens",
          "type": "address"
        },
        {
          "internalType": "contract INameWrapper",
          "name": "_nameWrapper",
          "type": "address"
        },
        {
          "internalType": "uint256",
          "name": "_l2ChainId",
          "type": "uint256"
        },
        {
          "internalType": "uint256",
          "name": "_maxNFTId",
          "type": "uint256"
        }
      ],
      "stateMutability": "nonpayable",
      "type": "constructor"
    },
    {
      "inputs": [],
      "name": "CommandTooLong",
      "type": "error"
    },
    {
      "inputs": [
        {
          "internalType": "address",
          "name": "sender",
          "type": "address"
        },
        {
          "internalType": "string[]",
          "name": "urls",
          "type": "string[]"
        },
        {
          "internalType": "bytes",
          "name": "callData",
          "type": "bytes"
        },
        {
          "internalType": "bytes4",
          "name": "callbackFunction",
          "type": "bytes4"
        },
        {
          "internalType": "bytes",
          "name": "extraData",
          "type": "bytes"
        }
      ],
      "name": "OffchainLookup",
      "type": "error"
    },
    {
      "inputs": [
        {
          "internalType": "uint256",
          "name": "actual",
          "type": "uint256"
        },
        {
          "internalType": "uint256",
          "name": "expected",
          "type": "uint256"
        }
      ],
      "name": "ResponseLengthMismatch",
      "type": "error"
    },
    {
      "inputs": [
        {
          "internalType": "uint256",
          "name": "chainId",
          "type": "uint256"
        },
        {
          "internalType": "address",
          "name": "contractAddress",
          "type": "address"
        }
      ],
      "name": "StorageHandledByL2",
      "type": "error"
    },
    {
      "inputs": [
        {
          "internalType": "uint256",
          "name": "max",
          "type": "uint256"
        }
      ],
      "name": "TooManyCommands",
      "type": "error"
    },
    {
      "anonymous": false,
      "inputs": [
        {
          "indexed": false,
          "internalType": "bytes32",
          "name": "node",
          "type": "bytes32"
        },
        {
          "indexed": false,
          "internalType": "address",
          "name": "resolverAddr",
          "type": "address"
        }
      ],
      "name": "BaseNodeResolverSet",
      "type": "event"
    },
    {
      "anonymous": false,
      "inputs": [
        {
          "indexed": false,
          "internalType": "address",
          "name": "target",
          "type": "address"
        },
        {
          "indexed": false,
          "internalType": "uint256",
          "name": "slot",
          "type": "uint256"
        }
      ],
      "name": "TargetAddrSlotSet",
      "type": "event"
    },
    {
      "anonymous": false,
      "inputs": [
        {
          "indexed": false,
          "internalType": "bytes",
          "name": "name",
          "type": "bytes"
        },
        {
          "indexed": false,
          "internalType": "address",
          "name": "target",
          "type": "address"
        }
      ],
      "name": "TargetSet",
      "type": "event"
    },
    {
      "inputs": [
        {
          "internalType": "bytes[]",
          "name": "values",
          "type": "bytes[]"
        },
        {
          "internalType": "bytes",
          "name": "extraData",
          "type": "bytes"
        }
      ],
      "name": "addrCallback",
      "outputs": [
        {
          "internalType": "bytes",
          "name": "",
          "type": "bytes"
        }
      ],
      "stateMutability": "view",
      "type": "function"
    },
    {
      "inputs": [],
      "name": "ens",
      "outputs": [
        {
          "internalType": "contract ENS",
          "name": "",
          "type": "address"
        }
      ],
      "stateMutability": "view",
      "type": "function"
    },
    {
      "inputs": [
        {
          "internalType": "bytes",
          "name": "name",
          "type": "bytes"
        }
      ],
      "name": "extractNFTId",
      "outputs": [
        {
          "internalType": "uint256",
          "name": "",
          "type": "uint256"
        }
      ],
      "stateMutability": "pure",
      "type": "function"
    },
    {
      "inputs": [],
      "name": "getAcceptedL2BlockRangeLength",
      "outputs": [
        {
          "internalType": "uint256",
          "name": "",
          "type": "uint256"
        }
      ],
      "stateMutability": "pure",
      "type": "function"
    },
    {
      "inputs": [
        {
          "internalType": "bytes",
          "name": "response",
          "type": "bytes"
        },
        {
          "internalType": "bytes",
          "name": "extradata",
          "type": "bytes"
        }
      ],
      "name": "getStorageSlotsCallback",
      "outputs": [
        {
          "internalType": "bytes",
          "name": "",
          "type": "bytes"
        }
      ],
      "stateMutability": "nonpayable",
      "type": "function"
    },
    {
      "inputs": [
        {
          "internalType": "bytes",
          "name": "name",
          "type": "bytes"
        }
      ],
      "name": "getTarget",
      "outputs": [
        {
          "internalType": "bytes32",
          "name": "node",
          "type": "bytes32"
        },
        {
          "internalType": "address",
          "name": "target",
          "type": "address"
        }
      ],
      "stateMutability": "view",
      "type": "function"
    },
    {
      "inputs": [],
      "name": "l2ChainId",
      "outputs": [
        {
          "internalType": "uint256",
          "name": "",
          "type": "uint256"
        }
      ],
      "stateMutability": "view",
      "type": "function"
    },
    {
      "inputs": [],
      "name": "maxNFTId",
      "outputs": [
        {
          "internalType": "uint256",
          "name": "",
          "type": "uint256"
        }
      ],
      "stateMutability": "view",
      "type": "function"
    },
    {
      "inputs": [],
      "name": "nameWrapper",
      "outputs": [
        {
          "internalType": "contract INameWrapper",
          "name": "",
          "type": "address"
        }
      ],
      "stateMutability": "view",
      "type": "function"
    },
    {
      "inputs": [
        {
          "internalType": "bytes",
          "name": "name",
          "type": "bytes"
        },
        {
          "internalType": "bytes",
          "name": "data",
          "type": "bytes"
        }
      ],
      "name": "resolve",
      "outputs": [
        {
          "internalType": "bytes",
          "name": "result",
          "type": "bytes"
        }
      ],
      "stateMutability": "view",
      "type": "function"
    },
    {
      "inputs": [
        {
          "internalType": "bytes",
          "name": "name",
          "type": "bytes"
        },
        {
          "internalType": "address",
          "name": "_addr",
          "type": "address"
        }
      ],
      "name": "setAddr",
      "outputs": [
        {
          "internalType": "bytes",
          "name": "result",
          "type": "bytes"
        }
      ],
      "stateMutability": "view",
      "type": "function"
    },
    {
      "inputs": [
        {
          "internalType": "bytes",
          "name": "name",
          "type": "bytes"
        },
        {
          "internalType": "address",
          "name": "resolverAddr",
          "type": "address"
        }
      ],
      "name": "setBaseNodeResolver",
      "outputs": [],
      "stateMutability": "nonpayable",
      "type": "function"
    },
    {
      "inputs": [
        {
          "internalType": "bytes",
          "name": "name",
          "type": "bytes"
        },
        {
          "internalType": "address",
          "name": "target",
          "type": "address"
        }
      ],
      "name": "setTarget",
      "outputs": [],
      "stateMutability": "nonpayable",
      "type": "function"
    },
    {
      "inputs": [
        {
          "internalType": "bytes",
          "name": "name",
          "type": "bytes"
        },
        {
          "internalType": "uint256",
          "name": "slot",
          "type": "uint256"
        }
      ],
      "name": "setTargetAddrSlot",
      "outputs": [],
      "stateMutability": "nonpayable",
      "type": "function"
    },
    {
      "inputs": [
        {
          "internalType": "bytes4",
          "name": "interfaceId",
          "type": "bytes4"
        }
      ],
      "name": "supportsInterface",
      "outputs": [
        {
          "internalType": "bool",
          "name": "",
          "type": "bool"
        }
      ],
      "stateMutability": "view",
      "type": "function"
    },
    {
      "inputs": [],
      "name": "verifier",
      "outputs": [
        {
          "internalType": "contract IEVMVerifier",
          "name": "",
          "type": "address"
        }
      ],
      "stateMutability": "view",
      "type": "function"
    }
  ],
  "bytecode": "0x61012060405234801561001157600080fd5b506040516141b63803806141b68339818101604052810190610033919061035e565b600073ffffffffffffffffffffffffffffffffffffffff168373ffffffffffffffffffffffffffffffffffffffff16036100a2576040517f08c379a000000000000000000000000000000000000000000000000000000000815260040161009990610436565b60405180910390fd5b600073ffffffffffffffffffffffffffffffffffffffff168573ffffffffffffffffffffffffffffffffffffffff1603610111576040517f08c379a0000000000000000000000000000000000000000000000000000000008152600401610108906104a2565b60405180910390fd5b600073ffffffffffffffffffffffffffffffffffffffff168473ffffffffffffffffffffffffffffffffffffffff1603610180576040517f08c379a00000000000000000000000000000000000000000000000000000000081526004016101779061050e565b60405180910390fd5b8473ffffffffffffffffffffffffffffffffffffffff1660808173ffffffffffffffffffffffffffffffffffffffff16815250508373ffffffffffffffffffffffffffffffffffffffff1660a08173ffffffffffffffffffffffffffffffffffffffff16815250508273ffffffffffffffffffffffffffffffffffffffff1660c08173ffffffffffffffffffffffffffffffffffffffff16815250508160e08181525050806101008181525050505050505061052e565b600080fd5b600073ffffffffffffffffffffffffffffffffffffffff82169050919050565b60006102678261023c565b9050919050565b60006102798261025c565b9050919050565b6102898161026e565b811461029457600080fd5b50565b6000815190506102a681610280565b92915050565b60006102b78261025c565b9050919050565b6102c7816102ac565b81146102d257600080fd5b50565b6000815190506102e4816102be565b92915050565b60006102f58261025c565b9050919050565b610305816102ea565b811461031057600080fd5b50565b600081519050610322816102fc565b92915050565b6000819050919050565b61033b81610328565b811461034657600080fd5b50565b60008151905061035881610332565b92915050565b600080600080600060a0868803121561037a57610379610237565b5b600061038888828901610297565b9550506020610399888289016102d5565b94505060406103aa88828901610313565b93505060606103bb88828901610349565b92505060806103cc88828901610349565b9150509295509295909350565b600082825260208201905092915050565b7f4e616d6520577261707065722061646472657373206d75737420626520736574600082015250565b60006104206020836103d9565b915061042b826103ea565b602082019050919050565b6000602082019050818103600083015261044f81610413565b9050919050565b7f56657269666965722061646472657373206d7573742062652073657400000000600082015250565b600061048c601c836103d9565b915061049782610456565b602082019050919050565b600060208201905081810360008301526104bb8161047f565b9050919050565b7f52656769737472792061646472657373206d7573742062652073657400000000600082015250565b60006104f8601c836103d9565b9150610503826104c2565b602082019050919050565b60006020820190508181036000830152610527816104eb565b9050919050565b60805160a05160c05160e05161010051613c1a61059c60003960008181610eb201526110f80152600081816110020152611687015260008181610c0e0152818161155d01526115b00152600081816106a101526114c101526000818161067d01526114640152613c1a6000f3fe608060405234801561001057600080fd5b50600436106101005760003560e01c8063a8e5fbc011610097578063d358df7711610066578063d358df77146102c4578063d6ae3cd5146102e0578063f00eebf4146102fe578063f470901a1461032e57610100565b8063a8e5fbc014610250578063ac177c371461026e578063ac8a4a5d1461028a578063c93cde81146102a657610100565b80633f15457f116100d35780633f15457f146101b45780635bdaa916146101d25780636d74e86e146102025780639061b9231461022057610100565b806301ffc9a71461010557806315f64386146101355780631a33ddae146101665780632b7ac3f314610196575b600080fd5b61011f600480360381019061011a9190611e97565b61035e565b60405161012c9190611edf565b60405180910390f35b61014f600480360381019061014a9190612040565b6104a8565b60405161015d9291906120e3565b60405180910390f35b610180600480360381019061017b919061216c565b6104bf565b60405161018d91906121d2565b60405180910390f35b61019e61067b565b6040516101ab919061224c565b60405180910390f35b6101bc61069f565b6040516101c99190612288565b60405180910390f35b6101ec60048036038101906101e791906122a3565b6106c3565b6040516101f991906123a3565b60405180910390f35b61020a61087d565b60405161021791906121d2565b60405180910390f35b61023a600480360381019061023591906122a3565b610888565b60405161024791906123a3565b60405180910390f35b610258610c0c565b60405161026591906123e6565b60405180910390f35b6102886004803603810190610283919061242d565b610c30565b005b6102a4600480360381019061029f91906124b9565b610d85565b005b6102ae610eb0565b6040516102bb91906121d2565b60405180910390f35b6102de60048036038101906102d991906124b9565b610ed4565b005b6102e8611000565b6040516102f591906121d2565b60405180910390f35b610318600480360381019061031391906124b9565b611024565b60405161032591906123a3565b60405180910390f35b610348600480360381019061034391906125fa565b61108b565b60405161035591906123a3565b60405180910390f35b60007f9061b923000000000000000000000000000000000000000000000000000000007bffffffffffffffffffffffffffffffffffffffffffffffffffffffff1916827bffffffffffffffffffffffffffffffffffffffffffffffffffffffff1916148061042957507f15f64386000000000000000000000000000000000000000000000000000000007bffffffffffffffffffffffffffffffffffffffffffffffffffffffff1916827bffffffffffffffffffffffffffffffffffffffffffffffffffffffff1916145b8061049157507ff00eebf4000000000000000000000000000000000000000000000000000000007bffffffffffffffffffffffffffffffffffffffffffffffffffffffff1916827bffffffffffffffffffffffffffffffffffffffffffffffffffffffff1916145b806104a157506104a082611175565b5b9050919050565b6000806104b68360006111df565b91509150915091565b60008073__$9c99182377933a0292ee16286dad4ecc22$__6394bc2db685856040518363ffffffff1660e01b81526004016104fb9291906126b0565b600060405180830381865af4158015610518573d6000803e3d6000fd5b505050506040513d6000823e3d601f19601f820116820180604052508101906105419190612744565b905073__$9c99182377933a0292ee16286dad4ecc22$__63e5c4cf73826040518263ffffffff1660e01b815260040161057a91906127c6565b602060405180830381865af4158015610597573d6000803e3d6000fd5b505050506040513d601f19601f820116820180604052508101906105bb9190612814565b6105fa576040517f08c379a00000000000000000000000000000000000000000000000000000000081526004016105f19061289e565b60405180910390fd5b73__$9c99182377933a0292ee16286dad4ecc22$__6308dea91d826040518263ffffffff1660e01b815260040161063191906127c6565b602060405180830381865af415801561064e573d6000803e3d6000fd5b505050506040513d601f19601f8201168201806040525081019061067291906128d3565b91505092915050565b7f000000000000000000000000000000000000000000000000000000000000000081565b7f000000000000000000000000000000000000000000000000000000000000000081565b6060600085858101906106d69190612040565b905060008060008060008089898101906106f09190612a6b565b95509550955095509550955060008673ffffffffffffffffffffffffffffffffffffffff1663c51ca02a8787878c61072661087d565b6040518663ffffffff1660e01b8152600401610746959493929190612d16565b600060405180830381865afa158015610763573d6000803e3d6000fd5b505050506040513d6000823e3d601f19601f8201168201806040525081019061078c9190612e33565b905084518151146107d857805185516040517f291894250000000000000000000000000000000000000000000000000000000081526004016107cf929190612e7c565b60405180910390fd5b60006108738483856040516024016107f1929190612ea5565b604051602081830303815290604052907bffffffffffffffffffffffffffffffffffffffffffffffffffffffff19166020820180517bffffffffffffffffffffffffffffffffffffffffffffffffffffffff83818316178352505050503073ffffffffffffffffffffffffffffffffffffffff1661134890919063ffffffff16565b9050805160208201f35b600062015180905090565b606060048383905010156108d1576040517f08c379a00000000000000000000000000000000000000000000000000000000081526004016108c890612f28565b60405180910390fd5b6000838360049080926108e693929190612f52565b8101906108f39190612f8d565b905060008073ffffffffffffffffffffffffffffffffffffffff1660008084815260200190815260200160002060009054906101000a900473ffffffffffffffffffffffffffffffffffffffff1673ffffffffffffffffffffffffffffffffffffffff161415905080156109f15760006001600084815260200190815260200160002060009054906101000a900473ffffffffffffffffffffffffffffffffffffffff1690506109e78187878080601f016020809104026020016040519081016040528093929190818152602001838380828437600081840152601f19601f82011690508083019250505050505050611394565b9350505050610c04565b600373__$9c99182377933a0292ee16286dad4ecc22$__634062ace389896040518363ffffffff1660e01b8152600401610a2c9291906126b0565b602060405180830381865af4158015610a49573d6000803e3d6000fd5b505050506040513d601f19601f82011682018060405250810190610a6d91906128d3565b1115610aae576040517f08c379a0000000000000000000000000000000000000000000000000000000008152600401610aa590613006565b60405180910390fd5b6000610aff88888080601f016020809104026020016040519081016040528093929190818152602001838380828437600081840152601f19601f8201169050808301925050505050505060006111df565b9150506000868690610b11919061303e565b9050633b3b57de60e01b7bffffffffffffffffffffffffffffffffffffffffffffffffffffffff1916817bffffffffffffffffffffffffffffffffffffffffffffffffffffffff191603610bc9576000610b6b8a8a6104bf565b90506000600260008573ffffffffffffffffffffffffffffffffffffffff1673ffffffffffffffffffffffffffffffffffffffff168152602001908152602001600020549050610bbc828286611421565b9650505050505050610c04565b6040517f08c379a0000000000000000000000000000000000000000000000000000000008152600401610bfb906130e9565b60405180910390fd5b949350505050565b7f000000000000000000000000000000000000000000000000000000000000000081565b6000610c7f84848080601f016020809104026020016040519081016040528093929190818152602001838380828437600081840152601f19601f820116905080830192505050505050506104a8565b509050610c8b816114bc565b610cca576040517f08c379a0000000000000000000000000000000000000000000000000000000008152600401610cc19061317b565b60405180910390fd5b600080600083815260200190815260200160002060009054906101000a900473ffffffffffffffffffffffffffffffffffffffff16905082600260008373ffffffffffffffffffffffffffffffffffffffff1673ffffffffffffffffffffffffffffffffffffffff168152602001908152602001600020819055507fd24dbac998cb2d343fb2b7fe7c54b44de845182ff5c7b461ef274afee047b5e78184604051610d7692919061319b565b60405180910390a15050505050565b6000610dd484848080601f016020809104026020016040519081016040528093929190818152602001838380828437600081840152601f19601f820116905080830192505050505050506104a8565b509050610de0816114bc565b610e1f576040517f08c379a0000000000000000000000000000000000000000000000000000000008152600401610e1690613236565b60405180910390fd5b816001600083815260200190815260200160002060006101000a81548173ffffffffffffffffffffffffffffffffffffffff021916908373ffffffffffffffffffffffffffffffffffffffff1602179055507f0704dfb2f4b8f24190956226460d0667a92b988de5055430d52e6b0315922e2c8183604051610ea29291906120e3565b60405180910390a150505050565b7f000000000000000000000000000000000000000000000000000000000000000081565b6000610f2384848080601f016020809104026020016040519081016040528093929190818152602001838380828437600081840152601f19601f820116905080830192505050505050506104a8565b509050610f2f816114bc565b610f6e576040517f08c379a0000000000000000000000000000000000000000000000000000000008152600401610f65906132c8565b60405180910390fd5b8160008083815260200190815260200160002060006101000a81548173ffffffffffffffffffffffffffffffffffffffff021916908373ffffffffffffffffffffffffffffffffffffffff1602179055507f88781081cc340609705af0f96bf3ba64ea267873444e91725bd072f2af0f44d8848484604051610ff293929190613315565b60405180910390a150505050565b7f000000000000000000000000000000000000000000000000000000000000000081565b6060600061107785858080601f016020809104026020016040519081016040528093929190818152602001838380828437600081840152601f19601f8201169050808301925050505050505060006111df565b91505061108381611685565b509392505050565b60606000836000815181106110a3576110a2613347565b5b60200260200101518060200190518101906110be91906128d3565b90506000806000858060200190518101906110d9919061338b565b9250925092506000841480156110ef5750600183115b801561111b57507f00000000000000000000000000000000000000000000000000000000000000008311155b1561114857600060018461112f919061340d565b905061113c818484611421565b9550505050505061116f565b836040516020016111599190613441565b6040516020818303038152906040529450505050505b92915050565b60007f01ffc9a7000000000000000000000000000000000000000000000000000000007bffffffffffffffffffffffffffffffffffffffffffffffffffffffff1916827bffffffffffffffffffffffffffffffffffffffffffffffffffffffff1916149050919050565b60008060006111f784866116e490919063ffffffff16565b60ff1690506000801b9250600081111561132f57600061122e60018661121d919061345c565b838861170f9092919063ffffffff16565b90506112518660018488611242919061345c565b61124c919061345c565b6111df565b8094508195505050838160405160200161126c9291906134b1565b604051602081830303815290604052805190602001209350600073ffffffffffffffffffffffffffffffffffffffff1660008086815260200190815260200160002060009054906101000a900473ffffffffffffffffffffffffffffffffffffffff1673ffffffffffffffffffffffffffffffffffffffff1614611329578360008086815260200190815260200160002060009054906101000a900473ffffffffffffffffffffffffffffffffffffffff16935093505050611341565b5061133f565b6000801b60009250925050611341565b505b9250929050565b606061138c838360006040518060400160405280601e81526020017f416464726573733a206c6f772d6c6576656c2063616c6c206661696c6564000081525061173b565b905092915050565b60606000808473ffffffffffffffffffffffffffffffffffffffff16846040516113be9190613519565b600060405180830381855afa9150503d80600081146113f9576040519150601f19603f3d011682016040523d82523d6000602084013e6113fe565b606091505b5091509150811561141357809250505061141b565b805160208201fd5b92915050565b6060600084848460405160200161143a93929190613530565b60405160208183030381529060405290506114b463f470901a60e01b826114a588611497896114897f00000000000000000000000000000000000000000000000000000000000000008b611808565b61191790919063ffffffff16565b6119f890919063ffffffff16565b611a799092919063ffffffff16565b509392505050565b6000807f000000000000000000000000000000000000000000000000000000000000000073ffffffffffffffffffffffffffffffffffffffff166302571be3846040518263ffffffff1660e01b81526004016115189190613567565b602060405180830381865afa158015611535573d6000803e3d6000fd5b505050506040513d601f19601f820116820180604052508101906115599190613597565b90507f000000000000000000000000000000000000000000000000000000000000000073ffffffffffffffffffffffffffffffffffffffff168173ffffffffffffffffffffffffffffffffffffffff160361164e577f000000000000000000000000000000000000000000000000000000000000000073ffffffffffffffffffffffffffffffffffffffff16636352211e8460001c6040518263ffffffff1660e01b815260040161160a91906121d2565b602060405180830381865afa158015611627573d6000803e3d6000fd5b505050506040513d601f19601f8201168201806040525081019061164b9190613597565b90505b3373ffffffffffffffffffffffffffffffffffffffff168173ffffffffffffffffffffffffffffffffffffffff1614915050919050565b7f0000000000000000000000000000000000000000000000000000000000000000816040517fe0a050710000000000000000000000000000000000000000000000000000000081526004016116db9291906135c4565b60405180910390fd5b60008282815181106116f9576116f8613347565b5b602001015160f81c60f81b60f81c905092915050565b60008351828461171f919061345c565b111561172a57600080fd5b818360208601012090509392505050565b606082471015611780576040517f08c379a00000000000000000000000000000000000000000000000000000000081526004016117779061365f565b60405180910390fd5b6000808673ffffffffffffffffffffffffffffffffffffffff1685876040516117a99190613519565b60006040518083038185875af1925050503d80600081146117e6576040519150601f19603f3d011682016040523d82523d6000602084013e6117eb565b606091505b50915091506117fc87838387611c04565b92505050949350505050565b611810611dd0565b6000602067ffffffffffffffff81111561182d5761182c611f15565b5b60405190808252806020026020018201604052801561185b5781602001602082028036833780820191505090505b5090506000602067ffffffffffffffff81111561187b5761187a611f15565b5b6040519080825280602002602001820160405280156118ae57816020015b60608152602001906001900390816118995790505b50905060008252600081526040518060a001604052808673ffffffffffffffffffffffffffffffffffffffff1681526020018573ffffffffffffffffffffffffffffffffffffffff16815260200183815260200160008152602001828152509250505092915050565b61191f611dd0565b600083604001519050600081519050600081118015611942575060208560600151105b15611953576119528560ff611c79565b5b600181018252602085604001515111156119a55760206040517f128e700800000000000000000000000000000000000000000000000000000000815260040161199c91906121d2565b60405180910390fd5b60008560600181815250506119bb856000611c79565b6119ed856119e887876040516020016119d491906121d2565b604051602081830303815290604052611d20565b611c79565b849250505092915050565b611a00611dd0565b6020836060015110611a3e576040517fb00fd63800000000000000000000000000000000000000000000000000000000815260040160405180910390fd5b611a7083611a6b8585604051602001611a5791906121d2565b604051602081830303815290604052611d20565b611c79565b82905092915050565b6000836040015151118015611a92575060208360600151105b15611aa357611aa28360ff611c79565b5b30836000015173ffffffffffffffffffffffffffffffffffffffff1663b50f2fbc6040518163ffffffff1660e01b8152600401600060405180830381865afa158015611af3573d6000803e3d6000fd5b505050506040513d6000823e3d601f19601f82011682018060405250810190611b1c9190613801565b846020015185604001518660800151604051602401611b3d9392919061384a565b60405160208183030381529060405263ea9cd3bf60e01b6020820180517bffffffffffffffffffffffffffffffffffffffffffffffffffffffff8381831617835250505050635bdaa91660e01b86600001518760200151886040015189608001518989604051602001611bb59695949392919061389e565b6040516020818303038152906040526040517f556f1830000000000000000000000000000000000000000000000000000000008152600401611bfb959493929190613a2b565b60405180910390fd5b60608315611c66576000835103611c5e57611c1e85611d5d565b611c5d576040517f08c379a0000000000000000000000000000000000000000000000000000000008152600401611c5490613adf565b60405180910390fd5b5b829050611c71565b611c708383611d80565b5b949350505050565b60006001836040015151611c8d919061340d565b9050826060018051809190611ca190613aff565b8152506008611cb09190613b47565b8260f81b7effffffffffffffffffffffffffffffffffffffffffffffffffffffffffffff1916901c83604001518281518110611cef57611cee613347565b5b60200260200101511783604001518281518110611d0f57611d0e613347565b5b602002602001018181525050505050565b600080836080015190508051915060018201815282818360ff1681518110611d4b57611d4a613347565b5b60200260200101819052505092915050565b6000808273ffffffffffffffffffffffffffffffffffffffff163b119050919050565b600082511115611d935781518083602001fd5b806040517f08c379a0000000000000000000000000000000000000000000000000000000008152600401611dc79190613bc2565b60405180910390fd5b6040518060a00160405280600073ffffffffffffffffffffffffffffffffffffffff168152602001600073ffffffffffffffffffffffffffffffffffffffff1681526020016060815260200160008152602001606081525090565b6000604051905090565b600080fd5b600080fd5b60007fffffffff0000000000000000000000000000000000000000000000000000000082169050919050565b611e7481611e3f565b8114611e7f57600080fd5b50565b600081359050611e9181611e6b565b92915050565b600060208284031215611ead57611eac611e35565b5b6000611ebb84828501611e82565b91505092915050565b60008115159050919050565b611ed981611ec4565b82525050565b6000602082019050611ef46000830184611ed0565b92915050565b600080fd5b600080fd5b6000601f19601f8301169050919050565b7f4e487b7100000000000000000000000000000000000000000000000000000000600052604160045260246000fd5b611f4d82611f04565b810181811067ffffffffffffffff82111715611f6c57611f6b611f15565b5b80604052505050565b6000611f7f611e2b565b9050611f8b8282611f44565b919050565b600067ffffffffffffffff821115611fab57611faa611f15565b5b611fb482611f04565b9050602081019050919050565b82818337600083830152505050565b6000611fe3611fde84611f90565b611f75565b905082815260208101848484011115611fff57611ffe611eff565b5b61200a848285611fc1565b509392505050565b600082601f83011261202757612026611efa565b5b8135612037848260208601611fd0565b91505092915050565b60006020828403121561205657612055611e35565b5b600082013567ffffffffffffffff81111561207457612073611e3a565b5b61208084828501612012565b91505092915050565b6000819050919050565b61209c81612089565b82525050565b600073ffffffffffffffffffffffffffffffffffffffff82169050919050565b60006120cd826120a2565b9050919050565b6120dd816120c2565b82525050565b60006040820190506120f86000830185612093565b61210560208301846120d4565b9392505050565b600080fd5b600080fd5b60008083601f84011261212c5761212b611efa565b5b8235905067ffffffffffffffff8111156121495761214861210c565b5b60208301915083600182028301111561216557612164612111565b5b9250929050565b6000806020838503121561218357612182611e35565b5b600083013567ffffffffffffffff8111156121a1576121a0611e3a565b5b6121ad85828601612116565b92509250509250929050565b6000819050919050565b6121cc816121b9565b82525050565b60006020820190506121e760008301846121c3565b92915050565b6000819050919050565b600061221261220d612208846120a2565b6121ed565b6120a2565b9050919050565b6000612224826121f7565b9050919050565b600061223682612219565b9050919050565b6122468161222b565b82525050565b6000602082019050612261600083018461223d565b92915050565b600061227282612219565b9050919050565b61228281612267565b82525050565b600060208201905061229d6000830184612279565b92915050565b600080600080604085870312156122bd576122bc611e35565b5b600085013567ffffffffffffffff8111156122db576122da611e3a565b5b6122e787828801612116565b9450945050602085013567ffffffffffffffff81111561230a57612309611e3a565b5b61231687828801612116565b925092505092959194509250565b600081519050919050565b600082825260208201905092915050565b60005b8381101561235e578082015181840152602081019050612343565b60008484015250505050565b600061237582612324565b61237f818561232f565b935061238f818560208601612340565b61239881611f04565b840191505092915050565b600060208201905081810360008301526123bd818461236a565b905092915050565b60006123d082612219565b9050919050565b6123e0816123c5565b82525050565b60006020820190506123fb60008301846123d7565b92915050565b61240a816121b9565b811461241557600080fd5b50565b60008135905061242781612401565b92915050565b60008060006040848603121561244657612445611e35565b5b600084013567ffffffffffffffff81111561246457612463611e3a565b5b61247086828701612116565b9350935050602061248386828701612418565b9150509250925092565b612496816120c2565b81146124a157600080fd5b50565b6000813590506124b38161248d565b92915050565b6000806000604084860312156124d2576124d1611e35565b5b600084013567ffffffffffffffff8111156124f0576124ef611e3a565b5b6124fc86828701612116565b9350935050602061250f868287016124a4565b9150509250925092565b600067ffffffffffffffff82111561253457612533611f15565b5b602082029050602081019050919050565b600061255861255384612519565b611f75565b9050808382526020820190506020840283018581111561257b5761257a612111565b5b835b818110156125c257803567ffffffffffffffff8111156125a05761259f611efa565b5b8086016125ad8982612012565b8552602085019450505060208101905061257d565b5050509392505050565b600082601f8301126125e1576125e0611efa565b5b81356125f1848260208601612545565b91505092915050565b6000806040838503121561261157612610611e35565b5b600083013567ffffffffffffffff81111561262f5761262e611e3a565b5b61263b858286016125cc565b925050602083013567ffffffffffffffff81111561265c5761265b611e3a565b5b61266885828601612012565b9150509250929050565b600082825260208201905092915050565b600061268f8385612672565b935061269c838584611fc1565b6126a583611f04565b840190509392505050565b600060208201905081810360008301526126cb818486612683565b90509392505050565b60006126e76126e284611f90565b611f75565b90508281526020810184848401111561270357612702611eff565b5b61270e848285612340565b509392505050565b600082601f83011261272b5761272a611efa565b5b815161273b8482602086016126d4565b91505092915050565b60006020828403121561275a57612759611e35565b5b600082015167ffffffffffffffff81111561277857612777611e3a565b5b61278484828501612716565b91505092915050565b600061279882612324565b6127a28185612672565b93506127b2818560208601612340565b6127bb81611f04565b840191505092915050565b600060208201905081810360008301526127e0818461278d565b905092915050565b6127f181611ec4565b81146127fc57600080fd5b50565b60008151905061280e816127e8565b92915050565b60006020828403121561282a57612829611e35565b5b6000612838848285016127ff565b91505092915050565b600082825260208201905092915050565b7f4c6162656c206973206e6f742061206e756d6265720000000000000000000000600082015250565b6000612888601583612841565b915061289382612852565b602082019050919050565b600060208201905081810360008301526128b78161287b565b9050919050565b6000815190506128cd81612401565b92915050565b6000602082840312156128e9576128e8611e35565b5b60006128f7848285016128be565b91505092915050565b600061290b826120c2565b9050919050565b61291b81612900565b811461292657600080fd5b50565b60008135905061293881612912565b92915050565b6000612949826120a2565b9050919050565b6129598161293e565b811461296457600080fd5b50565b60008135905061297681612950565b92915050565b600067ffffffffffffffff82111561299757612996611f15565b5b602082029050602081019050919050565b6129b181612089565b81146129bc57600080fd5b50565b6000813590506129ce816129a8565b92915050565b60006129e76129e28461297c565b611f75565b90508083825260208201905060208402830185811115612a0a57612a09612111565b5b835b81811015612a335780612a1f88826129bf565b845260208401935050602081019050612a0c565b5050509392505050565b600082601f830112612a5257612a51611efa565b5b8135612a628482602086016129d4565b91505092915050565b60008060008060008060c08789031215612a8857612a87611e35565b5b6000612a9689828a01612929565b9650506020612aa789828a01612967565b955050604087013567ffffffffffffffff811115612ac857612ac7611e3a565b5b612ad489828a01612a3d565b945050606087013567ffffffffffffffff811115612af557612af4611e3a565b5b612b0189828a016125cc565b9350506080612b1289828a01611e82565b92505060a087013567ffffffffffffffff811115612b3357612b32611e3a565b5b612b3f89828a01612012565b9150509295509295509295565b600081519050919050565b600082825260208201905092915050565b6000819050602082019050919050565b612b8181612089565b82525050565b6000612b938383612b78565b60208301905092915050565b6000602082019050919050565b6000612bb782612b4c565b612bc18185612b57565b9350612bcc83612b68565b8060005b83811015612bfd578151612be48882612b87565b9750612bef83612b9f565b925050600181019050612bd0565b5085935050505092915050565b600081519050919050565b600082825260208201905092915050565b6000819050602082019050919050565b600082825260208201905092915050565b6000612c5282612324565b612c5c8185612c36565b9350612c6c818560208601612340565b612c7581611f04565b840191505092915050565b6000612c8c8383612c47565b905092915050565b6000602082019050919050565b6000612cac82612c0a565b612cb68185612c15565b935083602082028501612cc885612c26565b8060005b85811015612d045784840389528151612ce58582612c80565b9450612cf083612c94565b925060208a01995050600181019050612ccc565b50829750879550505050505092915050565b600060a082019050612d2b60008301886120d4565b8181036020830152612d3d8187612bac565b90508181036040830152612d518186612ca1565b90508181036060830152612d65818561236a565b9050612d7460808301846121c3565b9695505050505050565b6000612d91612d8c84612519565b611f75565b90508083825260208201905060208402830185811115612db457612db3612111565b5b835b81811015612dfb57805167ffffffffffffffff811115612dd957612dd8611efa565b5b808601612de68982612716565b85526020850194505050602081019050612db6565b5050509392505050565b600082601f830112612e1a57612e19611efa565b5b8151612e2a848260208601612d7e565b91505092915050565b600060208284031215612e4957612e48611e35565b5b600082015167ffffffffffffffff811115612e6757612e66611e3a565b5b612e7384828501612e05565b91505092915050565b6000604082019050612e9160008301856121c3565b612e9e60208301846121c3565b9392505050565b60006040820190508181036000830152612ebf8185612ca1565b90508181036020830152612ed3818461236a565b90509392505050565b7f706172616d206461746120746f6f2073686f7274000000000000000000000000600082015250565b6000612f12601483612841565b9150612f1d82612edc565b602082019050919050565b60006020820190508181036000830152612f4181612f05565b9050919050565b600080fd5b600080fd5b60008085851115612f6657612f65612f48565b5b83861115612f7757612f76612f4d565b5b6001850283019150848603905094509492505050565b600060208284031215612fa357612fa2611e35565b5b6000612fb1848285016129bf565b91505092915050565b7f546f6f206d616e7920737562646f6d61696e206c6576656c7300000000000000600082015250565b6000612ff0601983612841565b9150612ffb82612fba565b602082019050919050565b6000602082019050818103600083015261301f81612fe3565b9050919050565b600082905092915050565b600082821b905092915050565b600061304a8383613026565b826130558135611e3f565b92506004821015613095576130907fffffffff0000000000000000000000000000000000000000000000000000000083600403600802613031565b831692505b505092915050565b7f696e76616c69642073656c6563746f7200000000000000000000000000000000600082015250565b60006130d3601083612841565b91506130de8261309d565b602082019050919050565b60006020820190508181036000830152613102816130c6565b9050919050565b7f4e6f7420617574686f72697a656420746f20736574207461726765742061646460008201527f7265737320736c6f7420666f722074686973206e6f6465000000000000000000602082015250565b6000613165603783612841565b915061317082613109565b604082019050919050565b6000602082019050818103600083015261319481613158565b9050919050565b60006040820190506131b060008301856120d4565b6131bd60208301846121c3565b9392505050565b7f4e6f7420617574686f72697a656420746f20736574207265736f6c766572206660008201527f6f722074686973206e6f64650000000000000000000000000000000000000000602082015250565b6000613220602c83612841565b915061322b826131c4565b604082019050919050565b6000602082019050818103600083015261324f81613213565b9050919050565b7f4e6f7420617574686f72697a656420746f207365742074617267657420666f7260008201527f2074686973206e6f646500000000000000000000000000000000000000000000602082015250565b60006132b2602a83612841565b91506132bd82613256565b604082019050919050565b600060208201905081810360008301526132e1816132a5565b9050919050565b60006132f4838561232f565b9350613301838584611fc1565b61330a83611f04565b840190509392505050565b600060408201905081810360008301526133308185876132e8565b905061333f60208301846120d4565b949350505050565b7f4e487b7100000000000000000000000000000000000000000000000000000000600052603260045260246000fd5b60008151905061338581612950565b92915050565b6000806000606084860312156133a4576133a3611e35565b5b60006133b2868287016128be565b93505060206133c3868287016128be565b92505060406133d486828701613376565b9150509250925092565b7f4e487b7100000000000000000000000000000000000000000000000000000000600052601160045260246000fd5b6000613418826121b9565b9150613423836121b9565b925082820390508181111561343b5761343a6133de565b5b92915050565b600060208201905061345660008301846120d4565b92915050565b6000613467826121b9565b9150613472836121b9565b925082820190508082111561348a576134896133de565b5b92915050565b6000819050919050565b6134ab6134a682612089565b613490565b82525050565b60006134bd828561349a565b6020820191506134cd828461349a565b6020820191508190509392505050565b600081905092915050565b60006134f382612324565b6134fd81856134dd565b935061350d818560208601612340565b80840191505092915050565b600061352582846134e8565b915081905092915050565b600060608201905061354560008301866121c3565b61355260208301856121c3565b61355f60408301846120d4565b949350505050565b600060208201905061357c6000830184612093565b92915050565b6000815190506135918161248d565b92915050565b6000602082840312156135ad576135ac611e35565b5b60006135bb84828501613582565b91505092915050565b60006040820190506135d960008301856121c3565b6135e660208301846120d4565b9392505050565b7f416464726573733a20696e73756666696369656e742062616c616e636520666f60008201527f722063616c6c0000000000000000000000000000000000000000000000000000602082015250565b6000613649602683612841565b9150613654826135ed565b604082019050919050565b600060208201905081810360008301526136788161363c565b9050919050565b600067ffffffffffffffff82111561369a57613699611f15565b5b602082029050602081019050919050565b600067ffffffffffffffff8211156136c6576136c5611f15565b5b6136cf82611f04565b9050602081019050919050565b60006136ef6136ea846136ab565b611f75565b90508281526020810184848401111561370b5761370a611eff565b5b613716848285612340565b509392505050565b600082601f83011261373357613732611efa565b5b81516137438482602086016136dc565b91505092915050565b600061375f61375a8461367f565b611f75565b9050808382526020820190506020840283018581111561378257613781612111565b5b835b818110156137c957805167ffffffffffffffff8111156137a7576137a6611efa565b5b8086016137b4898261371e565b85526020850194505050602081019050613784565b5050509392505050565b600082601f8301126137e8576137e7611efa565b5b81516137f884826020860161374c565b91505092915050565b60006020828403121561381757613816611e35565b5b600082015167ffffffffffffffff81111561383557613834611e3a565b5b613841848285016137d3565b91505092915050565b600060608201905061385f60008301866120d4565b81810360208301526138718185612bac565b905081810360408301526138858184612ca1565b9050949350505050565b61389881611e3f565b82525050565b600060c0820190506138b3600083018961223d565b6138c060208301886120d4565b81810360408301526138d28187612bac565b905081810360608301526138e68186612ca1565b90506138f5608083018561388f565b81810360a0830152613907818461236a565b9050979650505050505050565b600081519050919050565b600082825260208201905092915050565b6000819050602082019050919050565b600081519050919050565b600082825260208201905092915050565b600061396782613940565b613971818561394b565b9350613981818560208601612340565b61398a81611f04565b840191505092915050565b60006139a1838361395c565b905092915050565b6000602082019050919050565b60006139c182613914565b6139cb818561391f565b9350836020820285016139dd85613930565b8060005b85811015613a1957848403895281516139fa8582613995565b9450613a05836139a9565b925060208a019950506001810190506139e1565b50829750879550505050505092915050565b600060a082019050613a4060008301886120d4565b8181036020830152613a5281876139b6565b90508181036040830152613a66818661236a565b9050613a75606083018561388f565b8181036080830152613a87818461236a565b90509695505050505050565b7f416464726573733a2063616c6c20746f206e6f6e2d636f6e7472616374000000600082015250565b6000613ac9601d83612841565b9150613ad482613a93565b602082019050919050565b60006020820190508181036000830152613af881613abc565b9050919050565b6000613b0a826121b9565b91507fffffffffffffffffffffffffffffffffffffffffffffffffffffffffffffffff8203613b3c57613b3b6133de565b5b600182019050919050565b6000613b52826121b9565b9150613b5d836121b9565b9250828202613b6b816121b9565b91508282048414831517613b8257613b816133de565b5b5092915050565b6000613b9482613940565b613b9e8185612841565b9350613bae818560208601612340565b613bb781611f04565b840191505092915050565b60006020820190508181036000830152613bdc8184613b89565b90509291505056fea2646970667358221220767db56eefab216d3924fb58871eea12b2a720923ba1dd3c56acb85b4d996ca464736f6c63430008190033",
  "linkReferences": {
    "contracts/LabelUtils.sol": {
      "LabelUtils": [
        {
          "length": 20,
          "start": 2656
        },
        {
          "length": 20,
          "start": 2785
        },
        {
          "length": 20,
          "start": 2968
        },
        {
          "length": 20,
          "start": 3985
        }
      ]
    }
  },
  "deployedLinkReferences": {
    "contracts/LabelUtils.sol": {
      "LabelUtils": [
        {
          "length": 20,
          "start": 1220
        },
        {
          "length": 20,
          "start": 1349
        },
        {
          "length": 20,
          "start": 1532
        },
        {
          "length": 20,
          "start": 2549
        }
      ]
    }
  }
}