{
  "_format": "hh-sol-artifact-1",
  "contractName": "NFTPackedOwnersResolver",
  "sourceName": "contracts/NFTPackedOwnersResolver.sol",
  "abi": [
    {
      "inputs": [
        {
          "internalType": "contract IEVMVerifier",
          "name": "_verifier",
          "type": "address"
        },
        {
          "internalType": "contract ENS",
          "name": "_ens",
          "type": "address"
        },
        {
          "internalType": "contract INameWrapper",
          "name": "_nameWrapper",
          "type": "address"
        },
        {
          "internalType": "uint256",
          "name": "_l2ChainId",
          "type": "uint256"
        },
        {
          "internalType": "uint256",
          "name": "_maxNFTId",
          "type": "uint256"
        }
      ],
      "stateMutability": "nonpayable",
      "type": "constructor"
    },
    {
      "inputs": [],
      "name": "CommandTooLong",
      "type": "error"
    },
    {
      "inputs": [
        {
          "internalType": "address",
          "name": "sender",
          "type": "address"
        },
        {
          "internalType": "string[]",
          "name": "urls",
          "type": "string[]"
        },
        {
          "internalType": "bytes",
          "name": "callData",
          "type": "bytes"
        },
        {
          "internalType": "bytes4",
          "name": "callbackFunction",
          "type": "bytes4"
        },
        {
          "internalType": "bytes",
          "name": "extraData",
          "type": "bytes"
        }
      ],
      "name": "OffchainLookup",
      "type": "error"
    },
    {
      "inputs": [
        {
          "internalType": "uint256",
          "name": "actual",
          "type": "uint256"
        },
        {
          "internalType": "uint256",
          "name": "expected",
          "type": "uint256"
        }
      ],
      "name": "ResponseLengthMismatch",
      "type": "error"
    },
    {
      "inputs": [
        {
          "internalType": "uint256",
          "name": "chainId",
          "type": "uint256"
        },
        {
          "internalType": "address",
          "name": "contractAddress",
          "type": "address"
        }
      ],
      "name": "StorageHandledByL2",
      "type": "error"
    },
    {
      "inputs": [
        {
          "internalType": "uint256",
          "name": "max",
          "type": "uint256"
        }
      ],
      "name": "TooManyCommands",
      "type": "error"
    },
    {
      "anonymous": false,
      "inputs": [
        {
          "indexed": false,
          "internalType": "bytes32",
          "name": "node",
          "type": "bytes32"
        },
        {
          "indexed": false,
          "internalType": "address",
          "name": "resolverAddr",
          "type": "address"
        }
      ],
      "name": "BaseNodeResolverSet",
      "type": "event"
    },
    {
      "anonymous": false,
      "inputs": [
        {
          "indexed": false,
          "internalType": "bytes32",
          "name": "node",
          "type": "bytes32"
        },
        {
          "indexed": false,
          "internalType": "uint256",
          "name": "slot",
          "type": "uint256"
        }
      ],
      "name": "TargetAddrSlotSet",
      "type": "event"
    },
    {
      "anonymous": false,
      "inputs": [
        {
          "indexed": false,
          "internalType": "bytes",
          "name": "name",
          "type": "bytes"
        },
        {
          "indexed": false,
          "internalType": "address",
          "name": "target",
          "type": "address"
        }
      ],
      "name": "TargetSet",
      "type": "event"
    },
    {
      "inputs": [
        {
          "internalType": "bytes[]",
          "name": "values",
          "type": "bytes[]"
        },
        {
          "internalType": "bytes",
          "name": "extraData",
          "type": "bytes"
        }
      ],
      "name": "addrCallback",
      "outputs": [
        {
          "internalType": "bytes",
          "name": "",
          "type": "bytes"
        }
      ],
      "stateMutability": "view",
      "type": "function"
    },
    {
      "inputs": [],
      "name": "ens",
      "outputs": [
        {
          "internalType": "contract ENS",
          "name": "",
          "type": "address"
        }
      ],
      "stateMutability": "view",
      "type": "function"
    },
    {
      "inputs": [
        {
          "internalType": "bytes",
          "name": "name",
          "type": "bytes"
        }
      ],
      "name": "extractNFTId",
      "outputs": [
        {
          "internalType": "uint256",
          "name": "",
          "type": "uint256"
        }
      ],
      "stateMutability": "pure",
      "type": "function"
    },
    {
      "inputs": [],
      "name": "getAcceptedL2BlockRangeLength",
      "outputs": [
        {
          "internalType": "uint256",
          "name": "",
          "type": "uint256"
        }
      ],
      "stateMutability": "pure",
      "type": "function"
    },
    {
      "inputs": [
        {
          "internalType": "bytes",
          "name": "response",
          "type": "bytes"
        },
        {
          "internalType": "bytes",
          "name": "extradata",
          "type": "bytes"
        }
      ],
      "name": "getStorageSlotsCallback",
      "outputs": [
        {
          "internalType": "bytes",
          "name": "",
          "type": "bytes"
        }
      ],
      "stateMutability": "nonpayable",
      "type": "function"
    },
    {
      "inputs": [
        {
          "internalType": "bytes",
          "name": "name",
          "type": "bytes"
        }
      ],
      "name": "getTarget",
      "outputs": [
        {
          "internalType": "bytes32",
          "name": "node",
          "type": "bytes32"
        },
        {
          "internalType": "address",
          "name": "target",
          "type": "address"
        }
      ],
      "stateMutability": "view",
      "type": "function"
    },
    {
      "inputs": [],
      "name": "l2ChainId",
      "outputs": [
        {
          "internalType": "uint256",
          "name": "",
          "type": "uint256"
        }
      ],
      "stateMutability": "view",
      "type": "function"
    },
    {
      "inputs": [],
      "name": "maxNFTId",
      "outputs": [
        {
          "internalType": "uint256",
          "name": "",
          "type": "uint256"
        }
      ],
      "stateMutability": "view",
      "type": "function"
    },
    {
      "inputs": [],
      "name": "nameWrapper",
      "outputs": [
        {
          "internalType": "contract INameWrapper",
          "name": "",
          "type": "address"
        }
      ],
      "stateMutability": "view",
      "type": "function"
    },
    {
      "inputs": [
        {
          "internalType": "bytes",
          "name": "name",
          "type": "bytes"
        },
        {
          "internalType": "bytes",
          "name": "data",
          "type": "bytes"
        }
      ],
      "name": "resolve",
      "outputs": [
        {
          "internalType": "bytes",
          "name": "result",
          "type": "bytes"
        }
      ],
      "stateMutability": "view",
      "type": "function"
    },
    {
      "inputs": [
        {
          "internalType": "bytes",
          "name": "name",
          "type": "bytes"
        },
        {
          "internalType": "address",
          "name": "_addr",
          "type": "address"
        }
      ],
      "name": "setAddr",
      "outputs": [
        {
          "internalType": "bytes",
          "name": "result",
          "type": "bytes"
        }
      ],
      "stateMutability": "view",
      "type": "function"
    },
    {
      "inputs": [
        {
          "internalType": "bytes",
          "name": "name",
          "type": "bytes"
        },
        {
          "internalType": "address",
          "name": "resolverAddr",
          "type": "address"
        }
      ],
      "name": "setBaseNodeResolver",
      "outputs": [],
      "stateMutability": "nonpayable",
      "type": "function"
    },
    {
      "inputs": [
        {
          "internalType": "bytes",
          "name": "name",
          "type": "bytes"
        },
        {
          "internalType": "address",
          "name": "target",
          "type": "address"
        }
      ],
      "name": "setTarget",
      "outputs": [],
      "stateMutability": "nonpayable",
      "type": "function"
    },
    {
      "inputs": [
        {
          "internalType": "bytes",
          "name": "name",
          "type": "bytes"
        },
        {
          "internalType": "uint256",
          "name": "slot",
          "type": "uint256"
        }
      ],
      "name": "setTargetAddrSlot",
      "outputs": [],
      "stateMutability": "nonpayable",
      "type": "function"
    },
    {
      "inputs": [
        {
          "internalType": "bytes4",
          "name": "interfaceId",
          "type": "bytes4"
        }
      ],
      "name": "supportsInterface",
      "outputs": [
        {
          "internalType": "bool",
          "name": "",
          "type": "bool"
        }
      ],
      "stateMutability": "view",
      "type": "function"
    },
    {
      "inputs": [],
      "name": "verifier",
      "outputs": [
        {
          "internalType": "contract IEVMVerifier",
          "name": "",
          "type": "address"
        }
      ],
      "stateMutability": "view",
      "type": "function"
    }
  ],
  "bytecode": "0x61012060405234801561001157600080fd5b506040516142613803806142618339818101604052810190610033919061035e565b600073ffffffffffffffffffffffffffffffffffffffff168373ffffffffffffffffffffffffffffffffffffffff16036100a2576040517f08c379a000000000000000000000000000000000000000000000000000000000815260040161009990610436565b60405180910390fd5b600073ffffffffffffffffffffffffffffffffffffffff168573ffffffffffffffffffffffffffffffffffffffff1603610111576040517f08c379a0000000000000000000000000000000000000000000000000000000008152600401610108906104a2565b60405180910390fd5b600073ffffffffffffffffffffffffffffffffffffffff168473ffffffffffffffffffffffffffffffffffffffff1603610180576040517f08c379a00000000000000000000000000000000000000000000000000000000081526004016101779061050e565b60405180910390fd5b8473ffffffffffffffffffffffffffffffffffffffff1660808173ffffffffffffffffffffffffffffffffffffffff16815250508373ffffffffffffffffffffffffffffffffffffffff1660a08173ffffffffffffffffffffffffffffffffffffffff16815250508273ffffffffffffffffffffffffffffffffffffffff1660c08173ffffffffffffffffffffffffffffffffffffffff16815250508160e08181525050806101008181525050505050505061052e565b600080fd5b600073ffffffffffffffffffffffffffffffffffffffff82169050919050565b60006102678261023c565b9050919050565b60006102798261025c565b9050919050565b6102898161026e565b811461029457600080fd5b50565b6000815190506102a681610280565b92915050565b60006102b78261025c565b9050919050565b6102c7816102ac565b81146102d257600080fd5b50565b6000815190506102e4816102be565b92915050565b60006102f58261025c565b9050919050565b610305816102ea565b811461031057600080fd5b50565b600081519050610322816102fc565b92915050565b6000819050919050565b61033b81610328565b811461034657600080fd5b50565b60008151905061035881610332565b92915050565b600080600080600060a0868803121561037a57610379610237565b5b600061038888828901610297565b9550506020610399888289016102d5565b94505060406103aa88828901610313565b93505060606103bb88828901610349565b92505060806103cc88828901610349565b9150509295509295909350565b600082825260208201905092915050565b7f4e616d6520577261707065722061646472657373206d75737420626520736574600082015250565b60006104206020836103d9565b915061042b826103ea565b602082019050919050565b6000602082019050818103600083015261044f81610413565b9050919050565b7f56657269666965722061646472657373206d7573742062652073657400000000600082015250565b600061048c601c836103d9565b915061049782610456565b602082019050919050565b600060208201905081810360008301526104bb8161047f565b9050919050565b7f52656769737472792061646472657373206d7573742062652073657400000000600082015250565b60006104f8601c836103d9565b9150610503826104c2565b602082019050919050565b60006020820190508181036000830152610527816104eb565b9050919050565b60805160a05160c05160e05161010051613cc561059c60003960008181610e5e01526110a4015260008181610fae0152611732015260008181610c1e01528181611608015261165b0152600081816106a1015261156c01526000818161067d015261150f0152613cc56000f3fe608060405234801561001057600080fd5b50600436106101005760003560e01c8063a8e5fbc011610097578063d358df7711610066578063d358df77146102c4578063d6ae3cd5146102e0578063f00eebf4146102fe578063f470901a1461032e57610100565b8063a8e5fbc014610250578063ac177c371461026e578063ac8a4a5d1461028a578063c93cde81146102a657610100565b80633f15457f116100d35780633f15457f146101b45780635bdaa916146101d25780636d74e86e146102025780639061b9231461022057610100565b806301ffc9a71461010557806315f64386146101355780631a33ddae146101665780632b7ac3f314610196575b600080fd5b61011f600480360381019061011a9190611f42565b61035e565b60405161012c9190611f8a565b60405180910390f35b61014f600480360381019061014a91906120eb565b6104a8565b60405161015d92919061218e565b60405180910390f35b610180600480360381019061017b9190612217565b6104bf565b60405161018d919061227d565b60405180910390f35b61019e61067b565b6040516101ab91906122f7565b60405180910390f35b6101bc61069f565b6040516101c99190612333565b60405180910390f35b6101ec60048036038101906101e7919061234e565b6106c3565b6040516101f9919061244e565b60405180910390f35b61020a61087d565b604051610217919061227d565b60405180910390f35b61023a6004803603810190610235919061234e565b610888565b604051610247919061244e565b60405180910390f35b610258610c1c565b6040516102659190612491565b60405180910390f35b610288600480360381019061028391906124d8565b610c40565b005b6102a4600480360381019061029f9190612564565b610d31565b005b6102ae610e5c565b6040516102bb919061227d565b60405180910390f35b6102de60048036038101906102d99190612564565b610e80565b005b6102e8610fac565b6040516102f5919061227d565b60405180910390f35b61031860048036038101906103139190612564565b610fd0565b604051610325919061244e565b60405180910390f35b610348600480360381019061034391906126a5565b611037565b604051610355919061244e565b60405180910390f35b60007f9061b923000000000000000000000000000000000000000000000000000000007bffffffffffffffffffffffffffffffffffffffffffffffffffffffff1916827bffffffffffffffffffffffffffffffffffffffffffffffffffffffff1916148061042957507f15f64386000000000000000000000000000000000000000000000000000000007bffffffffffffffffffffffffffffffffffffffffffffffffffffffff1916827bffffffffffffffffffffffffffffffffffffffffffffffffffffffff1916145b8061049157507ff00eebf4000000000000000000000000000000000000000000000000000000007bffffffffffffffffffffffffffffffffffffffffffffffffffffffff1916827bffffffffffffffffffffffffffffffffffffffffffffffffffffffff1916145b806104a157506104a082611121565b5b9050919050565b6000806104b683600061118b565b91509150915091565b60008073__$9c99182377933a0292ee16286dad4ecc22$__6394bc2db685856040518363ffffffff1660e01b81526004016104fb92919061275b565b600060405180830381865af4158015610518573d6000803e3d6000fd5b505050506040513d6000823e3d601f19601f8201168201806040525081019061054191906127ef565b905073__$9c99182377933a0292ee16286dad4ecc22$__63e5c4cf73826040518263ffffffff1660e01b815260040161057a9190612871565b602060405180830381865af4158015610597573d6000803e3d6000fd5b505050506040513d601f19601f820116820180604052508101906105bb91906128bf565b6105fa576040517f08c379a00000000000000000000000000000000000000000000000000000000081526004016105f190612949565b60405180910390fd5b73__$9c99182377933a0292ee16286dad4ecc22$__6308dea91d826040518263ffffffff1660e01b81526004016106319190612871565b602060405180830381865af415801561064e573d6000803e3d6000fd5b505050506040513d601f19601f82011682018060405250810190610672919061297e565b91505092915050565b7f000000000000000000000000000000000000000000000000000000000000000081565b7f000000000000000000000000000000000000000000000000000000000000000081565b6060600085858101906106d691906120eb565b905060008060008060008089898101906106f09190612b16565b95509550955095509550955060008673ffffffffffffffffffffffffffffffffffffffff1663c51ca02a8787878c61072661087d565b6040518663ffffffff1660e01b8152600401610746959493929190612dc1565b600060405180830381865afa158015610763573d6000803e3d6000fd5b505050506040513d6000823e3d601f19601f8201168201806040525081019061078c9190612ede565b905084518151146107d857805185516040517f291894250000000000000000000000000000000000000000000000000000000081526004016107cf929190612f27565b60405180910390fd5b60006108738483856040516024016107f1929190612f50565b604051602081830303815290604052907bffffffffffffffffffffffffffffffffffffffffffffffffffffffff19166020820180517bffffffffffffffffffffffffffffffffffffffffffffffffffffffff83818316178352505050503073ffffffffffffffffffffffffffffffffffffffff166112f490919063ffffffff16565b9050805160208201f35b600062015180905090565b606060048383905010156108d1576040517f08c379a00000000000000000000000000000000000000000000000000000000081526004016108c890612fd3565b60405180910390fd5b6000838360049080926108e693929190612ffd565b8101906108f39190613038565b905060008073ffffffffffffffffffffffffffffffffffffffff1660008084815260200190815260200160002060009054906101000a900473ffffffffffffffffffffffffffffffffffffffff1673ffffffffffffffffffffffffffffffffffffffff161415905080156109f15760006001600084815260200190815260200160002060009054906101000a900473ffffffffffffffffffffffffffffffffffffffff1690506109e78187878080601f016020809104026020016040519081016040528093929190818152602001838380828437600081840152601f19601f82011690508083019250505050505050611340565b9350505050610c14565b600373__$9c99182377933a0292ee16286dad4ecc22$__634062ace389896040518363ffffffff1660e01b8152600401610a2c92919061275b565b602060405180830381865af4158015610a49573d6000803e3d6000fd5b505050506040513d601f19601f82011682018060405250810190610a6d919061297e565b1115610aae576040517f08c379a0000000000000000000000000000000000000000000000000000000008152600401610aa5906130b1565b60405180910390fd5b6000858590610abd91906130e9565b9050633b3b57de60e01b7bffffffffffffffffffffffffffffffffffffffffffffffffffffffff1916817bffffffffffffffffffffffffffffffffffffffffffffffffffffffff191603610bd9576000610b5c89898080601f016020809104026020016040519081016040528093929190818152602001838380828437600081840152601f19601f82011690508083019250505050505050600061118b565b9150506000610bb08a8a8080601f016020809104026020016040519081016040528093929190818152602001838380828437600081840152601f19601f8201169050808301925050505050505060006113cd565b9150506000610bbf8b8b6104bf565b9050610bcc8183856114cc565b9650505050505050610c14565b6040517f08c379a0000000000000000000000000000000000000000000000000000000008152600401610c0b90613194565b60405180910390fd5b949350505050565b7f000000000000000000000000000000000000000000000000000000000000000081565b6000610c8f84848080601f016020809104026020016040519081016040528093929190818152602001838380828437600081840152601f19601f820116905080830192505050505050506104a8565b509050610c9b81611567565b610cda576040517f08c379a0000000000000000000000000000000000000000000000000000000008152600401610cd190613226565b60405180910390fd5b8160026000838152602001908152602001600020819055507f413132acc9ccea5372990b9b254ea77f60bc509acac666b464e5b4ff9f1d3f058183604051610d23929190613246565b60405180910390a150505050565b6000610d8084848080601f016020809104026020016040519081016040528093929190818152602001838380828437600081840152601f19601f820116905080830192505050505050506104a8565b509050610d8c81611567565b610dcb576040517f08c379a0000000000000000000000000000000000000000000000000000000008152600401610dc2906132e1565b60405180910390fd5b816001600083815260200190815260200160002060006101000a81548173ffffffffffffffffffffffffffffffffffffffff021916908373ffffffffffffffffffffffffffffffffffffffff1602179055507f0704dfb2f4b8f24190956226460d0667a92b988de5055430d52e6b0315922e2c8183604051610e4e92919061218e565b60405180910390a150505050565b7f000000000000000000000000000000000000000000000000000000000000000081565b6000610ecf84848080601f016020809104026020016040519081016040528093929190818152602001838380828437600081840152601f19601f820116905080830192505050505050506104a8565b509050610edb81611567565b610f1a576040517f08c379a0000000000000000000000000000000000000000000000000000000008152600401610f1190613373565b60405180910390fd5b8160008083815260200190815260200160002060006101000a81548173ffffffffffffffffffffffffffffffffffffffff021916908373ffffffffffffffffffffffffffffffffffffffff1602179055507f88781081cc340609705af0f96bf3ba64ea267873444e91725bd072f2af0f44d8848484604051610f9e939291906133c0565b60405180910390a150505050565b7f000000000000000000000000000000000000000000000000000000000000000081565b6060600061102385858080601f016020809104026020016040519081016040528093929190818152602001838380828437600081840152601f19601f82011690508083019250505050505050600061118b565b91505061102f81611730565b509392505050565b606060008360008151811061104f5761104e6133f2565b5b602002602001015180602001905181019061106a919061297e565b90506000806000858060200190518101906110859190613436565b92509250925060008414801561109b5750600183115b80156110c757507f00000000000000000000000000000000000000000000000000000000000000008311155b156110f45760006001846110db91906134b8565b90506110e88184846114cc565b9550505050505061111b565b8360405160200161110591906134ec565b6040516020818303038152906040529450505050505b92915050565b60007f01ffc9a7000000000000000000000000000000000000000000000000000000007bffffffffffffffffffffffffffffffffffffffffffffffffffffffff1916827bffffffffffffffffffffffffffffffffffffffffffffffffffffffff1916149050919050565b60008060006111a3848661178f90919063ffffffff16565b60ff1690506000801b925060008111156112db5760006111da6001866111c99190613507565b83886117ba9092919063ffffffff16565b90506111fd86600184886111ee9190613507565b6111f89190613507565b61118b565b8094508195505050838160405160200161121892919061355c565b604051602081830303815290604052805190602001209350600073ffffffffffffffffffffffffffffffffffffffff1660008086815260200190815260200160002060009054906101000a900473ffffffffffffffffffffffffffffffffffffffff1673ffffffffffffffffffffffffffffffffffffffff16146112d5578360008086815260200190815260200160002060009054906101000a900473ffffffffffffffffffffffffffffffffffffffff169350935050506112ed565b506112eb565b6000801b600092509250506112ed565b505b9250929050565b6060611338838360006040518060400160405280601e81526020017f416464726573733a206c6f772d6c6576656c2063616c6c206661696c656400008152506117e6565b905092915050565b60606000808473ffffffffffffffffffffffffffffffffffffffff168460405161136a91906135c4565b600060405180830381855afa9150503d80600081146113a5576040519150601f19603f3d011682016040523d82523d6000602084013e6113aa565b606091505b509150915081156113bf5780925050506113c7565b805160208201fd5b92915050565b60008060006113e5848661178f90919063ffffffff16565b60ff1690506000801b925060008111156114b357600061141c60018661140b9190613507565b83886117ba9092919063ffffffff16565b905061143f86600184886114309190613507565b61143a9190613507565b6113cd565b8094508195505050838160405160200161145a92919061355c565b60405160208183030381529060405280519060200120935060006002600086815260200190815260200160002054146114ad578360026000868152602001908152602001600020549350935050506114c5565b506114c3565b6000801b600092509250506114c5565b505b9250929050565b606060008484846040516020016114e5939291906135db565b604051602081830303815290604052905061155f63f470901a60e01b8261155088611542896115347f00000000000000000000000000000000000000000000000000000000000000008b6118b3565b6119c290919063ffffffff16565b611aa390919063ffffffff16565b611b249092919063ffffffff16565b509392505050565b6000807f000000000000000000000000000000000000000000000000000000000000000073ffffffffffffffffffffffffffffffffffffffff166302571be3846040518263ffffffff1660e01b81526004016115c39190613612565b602060405180830381865afa1580156115e0573d6000803e3d6000fd5b505050506040513d601f19601f820116820180604052508101906116049190613642565b90507f000000000000000000000000000000000000000000000000000000000000000073ffffffffffffffffffffffffffffffffffffffff168173ffffffffffffffffffffffffffffffffffffffff16036116f9577f000000000000000000000000000000000000000000000000000000000000000073ffffffffffffffffffffffffffffffffffffffff16636352211e8460001c6040518263ffffffff1660e01b81526004016116b5919061227d565b602060405180830381865afa1580156116d2573d6000803e3d6000fd5b505050506040513d601f19601f820116820180604052508101906116f69190613642565b90505b3373ffffffffffffffffffffffffffffffffffffffff168173ffffffffffffffffffffffffffffffffffffffff1614915050919050565b7f0000000000000000000000000000000000000000000000000000000000000000816040517fe0a0507100000000000000000000000000000000000000000000000000000000815260040161178692919061366f565b60405180910390fd5b60008282815181106117a4576117a36133f2565b5b602001015160f81c60f81b60f81c905092915050565b6000835182846117ca9190613507565b11156117d557600080fd5b818360208601012090509392505050565b60608247101561182b576040517f08c379a00000000000000000000000000000000000000000000000000000000081526004016118229061370a565b60405180910390fd5b6000808673ffffffffffffffffffffffffffffffffffffffff16858760405161185491906135c4565b60006040518083038185875af1925050503d8060008114611891576040519150601f19603f3d011682016040523d82523d6000602084013e611896565b606091505b50915091506118a787838387611caf565b92505050949350505050565b6118bb611e7b565b6000602067ffffffffffffffff8111156118d8576118d7611fc0565b5b6040519080825280602002602001820160405280156119065781602001602082028036833780820191505090505b5090506000602067ffffffffffffffff81111561192657611925611fc0565b5b60405190808252806020026020018201604052801561195957816020015b60608152602001906001900390816119445790505b50905060008252600081526040518060a001604052808673ffffffffffffffffffffffffffffffffffffffff1681526020018573ffffffffffffffffffffffffffffffffffffffff16815260200183815260200160008152602001828152509250505092915050565b6119ca611e7b565b6000836040015190506000815190506000811180156119ed575060208560600151105b156119fe576119fd8560ff611d24565b5b60018101825260208560400151511115611a505760206040517f128e7008000000000000000000000000000000000000000000000000000000008152600401611a47919061227d565b60405180910390fd5b6000856060018181525050611a66856000611d24565b611a9885611a938787604051602001611a7f919061227d565b604051602081830303815290604052611dcb565b611d24565b849250505092915050565b611aab611e7b565b6020836060015110611ae9576040517fb00fd63800000000000000000000000000000000000000000000000000000000815260040160405180910390fd5b611b1b83611b168585604051602001611b02919061227d565b604051602081830303815290604052611dcb565b611d24565b82905092915050565b6000836040015151118015611b3d575060208360600151105b15611b4e57611b4d8360ff611d24565b5b30836000015173ffffffffffffffffffffffffffffffffffffffff1663b50f2fbc6040518163ffffffff1660e01b8152600401600060405180830381865afa158015611b9e573d6000803e3d6000fd5b505050506040513d6000823e3d601f19601f82011682018060405250810190611bc791906138ac565b846020015185604001518660800151604051602401611be8939291906138f5565b60405160208183030381529060405263ea9cd3bf60e01b6020820180517bffffffffffffffffffffffffffffffffffffffffffffffffffffffff8381831617835250505050635bdaa91660e01b86600001518760200151886040015189608001518989604051602001611c6096959493929190613949565b6040516020818303038152906040526040517f556f1830000000000000000000000000000000000000000000000000000000008152600401611ca6959493929190613ad6565b60405180910390fd5b60608315611d11576000835103611d0957611cc985611e08565b611d08576040517f08c379a0000000000000000000000000000000000000000000000000000000008152600401611cff90613b8a565b60405180910390fd5b5b829050611d1c565b611d1b8383611e2b565b5b949350505050565b60006001836040015151611d3891906134b8565b9050826060018051809190611d4c90613baa565b8152506008611d5b9190613bf2565b8260f81b7effffffffffffffffffffffffffffffffffffffffffffffffffffffffffffff1916901c83604001518281518110611d9a57611d996133f2565b5b60200260200101511783604001518281518110611dba57611db96133f2565b5b602002602001018181525050505050565b600080836080015190508051915060018201815282818360ff1681518110611df657611df56133f2565b5b60200260200101819052505092915050565b6000808273ffffffffffffffffffffffffffffffffffffffff163b119050919050565b600082511115611e3e5781518083602001fd5b806040517f08c379a0000000000000000000000000000000000000000000000000000000008152600401611e729190613c6d565b60405180910390fd5b6040518060a00160405280600073ffffffffffffffffffffffffffffffffffffffff168152602001600073ffffffffffffffffffffffffffffffffffffffff1681526020016060815260200160008152602001606081525090565b6000604051905090565b600080fd5b600080fd5b60007fffffffff0000000000000000000000000000000000000000000000000000000082169050919050565b611f1f81611eea565b8114611f2a57600080fd5b50565b600081359050611f3c81611f16565b92915050565b600060208284031215611f5857611f57611ee0565b5b6000611f6684828501611f2d565b91505092915050565b60008115159050919050565b611f8481611f6f565b82525050565b6000602082019050611f9f6000830184611f7b565b92915050565b600080fd5b600080fd5b6000601f19601f8301169050919050565b7f4e487b7100000000000000000000000000000000000000000000000000000000600052604160045260246000fd5b611ff882611faf565b810181811067ffffffffffffffff8211171561201757612016611fc0565b5b80604052505050565b600061202a611ed6565b90506120368282611fef565b919050565b600067ffffffffffffffff82111561205657612055611fc0565b5b61205f82611faf565b9050602081019050919050565b82818337600083830152505050565b600061208e6120898461203b565b612020565b9050828152602081018484840111156120aa576120a9611faa565b5b6120b584828561206c565b509392505050565b600082601f8301126120d2576120d1611fa5565b5b81356120e284826020860161207b565b91505092915050565b60006020828403121561210157612100611ee0565b5b600082013567ffffffffffffffff81111561211f5761211e611ee5565b5b61212b848285016120bd565b91505092915050565b6000819050919050565b61214781612134565b82525050565b600073ffffffffffffffffffffffffffffffffffffffff82169050919050565b60006121788261214d565b9050919050565b6121888161216d565b82525050565b60006040820190506121a3600083018561213e565b6121b0602083018461217f565b9392505050565b600080fd5b600080fd5b60008083601f8401126121d7576121d6611fa5565b5b8235905067ffffffffffffffff8111156121f4576121f36121b7565b5b6020830191508360018202830111156122105761220f6121bc565b5b9250929050565b6000806020838503121561222e5761222d611ee0565b5b600083013567ffffffffffffffff81111561224c5761224b611ee5565b5b612258858286016121c1565b92509250509250929050565b6000819050919050565b61227781612264565b82525050565b6000602082019050612292600083018461226e565b92915050565b6000819050919050565b60006122bd6122b86122b38461214d565b612298565b61214d565b9050919050565b60006122cf826122a2565b9050919050565b60006122e1826122c4565b9050919050565b6122f1816122d6565b82525050565b600060208201905061230c60008301846122e8565b92915050565b600061231d826122c4565b9050919050565b61232d81612312565b82525050565b60006020820190506123486000830184612324565b92915050565b6000806000806040858703121561236857612367611ee0565b5b600085013567ffffffffffffffff81111561238657612385611ee5565b5b612392878288016121c1565b9450945050602085013567ffffffffffffffff8111156123b5576123b4611ee5565b5b6123c1878288016121c1565b925092505092959194509250565b600081519050919050565b600082825260208201905092915050565b60005b838110156124095780820151818401526020810190506123ee565b60008484015250505050565b6000612420826123cf565b61242a81856123da565b935061243a8185602086016123eb565b61244381611faf565b840191505092915050565b600060208201905081810360008301526124688184612415565b905092915050565b600061247b826122c4565b9050919050565b61248b81612470565b82525050565b60006020820190506124a66000830184612482565b92915050565b6124b581612264565b81146124c057600080fd5b50565b6000813590506124d2816124ac565b92915050565b6000806000604084860312156124f1576124f0611ee0565b5b600084013567ffffffffffffffff81111561250f5761250e611ee5565b5b61251b868287016121c1565b9350935050602061252e868287016124c3565b9150509250925092565b6125418161216d565b811461254c57600080fd5b50565b60008135905061255e81612538565b92915050565b60008060006040848603121561257d5761257c611ee0565b5b600084013567ffffffffffffffff81111561259b5761259a611ee5565b5b6125a7868287016121c1565b935093505060206125ba8682870161254f565b9150509250925092565b600067ffffffffffffffff8211156125df576125de611fc0565b5b602082029050602081019050919050565b60006126036125fe846125c4565b612020565b90508083825260208201905060208402830185811115612626576126256121bc565b5b835b8181101561266d57803567ffffffffffffffff81111561264b5761264a611fa5565b5b80860161265889826120bd565b85526020850194505050602081019050612628565b5050509392505050565b600082601f83011261268c5761268b611fa5565b5b813561269c8482602086016125f0565b91505092915050565b600080604083850312156126bc576126bb611ee0565b5b600083013567ffffffffffffffff8111156126da576126d9611ee5565b5b6126e685828601612677565b925050602083013567ffffffffffffffff81111561270757612706611ee5565b5b612713858286016120bd565b9150509250929050565b600082825260208201905092915050565b600061273a838561271d565b935061274783858461206c565b61275083611faf565b840190509392505050565b6000602082019050818103600083015261277681848661272e565b90509392505050565b600061279261278d8461203b565b612020565b9050828152602081018484840111156127ae576127ad611faa565b5b6127b98482856123eb565b509392505050565b600082601f8301126127d6576127d5611fa5565b5b81516127e684826020860161277f565b91505092915050565b60006020828403121561280557612804611ee0565b5b600082015167ffffffffffffffff81111561282357612822611ee5565b5b61282f848285016127c1565b91505092915050565b6000612843826123cf565b61284d818561271d565b935061285d8185602086016123eb565b61286681611faf565b840191505092915050565b6000602082019050818103600083015261288b8184612838565b905092915050565b61289c81611f6f565b81146128a757600080fd5b50565b6000815190506128b981612893565b92915050565b6000602082840312156128d5576128d4611ee0565b5b60006128e3848285016128aa565b91505092915050565b600082825260208201905092915050565b7f4c6162656c206973206e6f742061206e756d6265720000000000000000000000600082015250565b60006129336015836128ec565b915061293e826128fd565b602082019050919050565b6000602082019050818103600083015261296281612926565b9050919050565b600081519050612978816124ac565b92915050565b60006020828403121561299457612993611ee0565b5b60006129a284828501612969565b91505092915050565b60006129b68261216d565b9050919050565b6129c6816129ab565b81146129d157600080fd5b50565b6000813590506129e3816129bd565b92915050565b60006129f48261214d565b9050919050565b612a04816129e9565b8114612a0f57600080fd5b50565b600081359050612a21816129fb565b92915050565b600067ffffffffffffffff821115612a4257612a41611fc0565b5b602082029050602081019050919050565b612a5c81612134565b8114612a6757600080fd5b50565b600081359050612a7981612a53565b92915050565b6000612a92612a8d84612a27565b612020565b90508083825260208201905060208402830185811115612ab557612ab46121bc565b5b835b81811015612ade5780612aca8882612a6a565b845260208401935050602081019050612ab7565b5050509392505050565b600082601f830112612afd57612afc611fa5565b5b8135612b0d848260208601612a7f565b91505092915050565b60008060008060008060c08789031215612b3357612b32611ee0565b5b6000612b4189828a016129d4565b9650506020612b5289828a01612a12565b955050604087013567ffffffffffffffff811115612b7357612b72611ee5565b5b612b7f89828a01612ae8565b945050606087013567ffffffffffffffff811115612ba057612b9f611ee5565b5b612bac89828a01612677565b9350506080612bbd89828a01611f2d565b92505060a087013567ffffffffffffffff811115612bde57612bdd611ee5565b5b612bea89828a016120bd565b9150509295509295509295565b600081519050919050565b600082825260208201905092915050565b6000819050602082019050919050565b612c2c81612134565b82525050565b6000612c3e8383612c23565b60208301905092915050565b6000602082019050919050565b6000612c6282612bf7565b612c6c8185612c02565b9350612c7783612c13565b8060005b83811015612ca8578151612c8f8882612c32565b9750612c9a83612c4a565b925050600181019050612c7b565b5085935050505092915050565b600081519050919050565b600082825260208201905092915050565b6000819050602082019050919050565b600082825260208201905092915050565b6000612cfd826123cf565b612d078185612ce1565b9350612d178185602086016123eb565b612d2081611faf565b840191505092915050565b6000612d378383612cf2565b905092915050565b6000602082019050919050565b6000612d5782612cb5565b612d618185612cc0565b935083602082028501612d7385612cd1565b8060005b85811015612daf5784840389528151612d908582612d2b565b9450612d9b83612d3f565b925060208a01995050600181019050612d77565b50829750879550505050505092915050565b600060a082019050612dd6600083018861217f565b8181036020830152612de88187612c57565b90508181036040830152612dfc8186612d4c565b90508181036060830152612e108185612415565b9050612e1f608083018461226e565b9695505050505050565b6000612e3c612e37846125c4565b612020565b90508083825260208201905060208402830185811115612e5f57612e5e6121bc565b5b835b81811015612ea657805167ffffffffffffffff811115612e8457612e83611fa5565b5b808601612e9189826127c1565b85526020850194505050602081019050612e61565b5050509392505050565b600082601f830112612ec557612ec4611fa5565b5b8151612ed5848260208601612e29565b91505092915050565b600060208284031215612ef457612ef3611ee0565b5b600082015167ffffffffffffffff811115612f1257612f11611ee5565b5b612f1e84828501612eb0565b91505092915050565b6000604082019050612f3c600083018561226e565b612f49602083018461226e565b9392505050565b60006040820190508181036000830152612f6a8185612d4c565b90508181036020830152612f7e8184612415565b90509392505050565b7f706172616d206461746120746f6f2073686f7274000000000000000000000000600082015250565b6000612fbd6014836128ec565b9150612fc882612f87565b602082019050919050565b60006020820190508181036000830152612fec81612fb0565b9050919050565b600080fd5b600080fd5b6000808585111561301157613010612ff3565b5b8386111561302257613021612ff8565b5b6001850283019150848603905094509492505050565b60006020828403121561304e5761304d611ee0565b5b600061305c84828501612a6a565b91505092915050565b7f546f6f206d616e7920737562646f6d61696e206c6576656c7300000000000000600082015250565b600061309b6019836128ec565b91506130a682613065565b602082019050919050565b600060208201905081810360008301526130ca8161308e565b9050919050565b600082905092915050565b600082821b905092915050565b60006130f583836130d1565b826131008135611eea565b925060048210156131405761313b7fffffffff00000000000000000000000000000000000000000000000000000000836004036008026130dc565b831692505b505092915050565b7f696e76616c69642073656c6563746f7200000000000000000000000000000000600082015250565b600061317e6010836128ec565b915061318982613148565b602082019050919050565b600060208201905081810360008301526131ad81613171565b9050919050565b7f4e6f7420617574686f72697a656420746f20736574207461726765742061646460008201527f7265737320736c6f7420666f722074686973206e6f6465000000000000000000602082015250565b60006132106037836128ec565b915061321b826131b4565b604082019050919050565b6000602082019050818103600083015261323f81613203565b9050919050565b600060408201905061325b600083018561213e565b613268602083018461226e565b9392505050565b7f4e6f7420617574686f72697a656420746f20736574207265736f6c766572206660008201527f6f722074686973206e6f64650000000000000000000000000000000000000000602082015250565b60006132cb602c836128ec565b91506132d68261326f565b604082019050919050565b600060208201905081810360008301526132fa816132be565b9050919050565b7f4e6f7420617574686f72697a656420746f207365742074617267657420666f7260008201527f2074686973206e6f646500000000000000000000000000000000000000000000602082015250565b600061335d602a836128ec565b915061336882613301565b604082019050919050565b6000602082019050818103600083015261338c81613350565b9050919050565b600061339f83856123da565b93506133ac83858461206c565b6133b583611faf565b840190509392505050565b600060408201905081810360008301526133db818587613393565b90506133ea602083018461217f565b949350505050565b7f4e487b7100000000000000000000000000000000000000000000000000000000600052603260045260246000fd5b600081519050613430816129fb565b92915050565b60008060006060848603121561344f5761344e611ee0565b5b600061345d86828701612969565b935050602061346e86828701612969565b925050604061347f86828701613421565b9150509250925092565b7f4e487b7100000000000000000000000000000000000000000000000000000000600052601160045260246000fd5b60006134c382612264565b91506134ce83612264565b92508282039050818111156134e6576134e5613489565b5b92915050565b6000602082019050613501600083018461217f565b92915050565b600061351282612264565b915061351d83612264565b925082820190508082111561353557613534613489565b5b92915050565b6000819050919050565b61355661355182612134565b61353b565b82525050565b60006135688285613545565b6020820191506135788284613545565b6020820191508190509392505050565b600081905092915050565b600061359e826123cf565b6135a88185613588565b93506135b88185602086016123eb565b80840191505092915050565b60006135d08284613593565b915081905092915050565b60006060820190506135f0600083018661226e565b6135fd602083018561226e565b61360a604083018461217f565b949350505050565b6000602082019050613627600083018461213e565b92915050565b60008151905061363c81612538565b92915050565b60006020828403121561365857613657611ee0565b5b60006136668482850161362d565b91505092915050565b6000604082019050613684600083018561226e565b613691602083018461217f565b9392505050565b7f416464726573733a20696e73756666696369656e742062616c616e636520666f60008201527f722063616c6c0000000000000000000000000000000000000000000000000000602082015250565b60006136f46026836128ec565b91506136ff82613698565b604082019050919050565b60006020820190508181036000830152613723816136e7565b9050919050565b600067ffffffffffffffff82111561374557613744611fc0565b5b602082029050602081019050919050565b600067ffffffffffffffff82111561377157613770611fc0565b5b61377a82611faf565b9050602081019050919050565b600061379a61379584613756565b612020565b9050828152602081018484840111156137b6576137b5611faa565b5b6137c18482856123eb565b509392505050565b600082601f8301126137de576137dd611fa5565b5b81516137ee848260208601613787565b91505092915050565b600061380a6138058461372a565b612020565b9050808382526020820190506020840283018581111561382d5761382c6121bc565b5b835b8181101561387457805167ffffffffffffffff81111561385257613851611fa5565b5b80860161385f89826137c9565b8552602085019450505060208101905061382f565b5050509392505050565b600082601f83011261389357613892611fa5565b5b81516138a38482602086016137f7565b91505092915050565b6000602082840312156138c2576138c1611ee0565b5b600082015167ffffffffffffffff8111156138e0576138df611ee5565b5b6138ec8482850161387e565b91505092915050565b600060608201905061390a600083018661217f565b818103602083015261391c8185612c57565b905081810360408301526139308184612d4c565b9050949350505050565b61394381611eea565b82525050565b600060c08201905061395e60008301896122e8565b61396b602083018861217f565b818103604083015261397d8187612c57565b905081810360608301526139918186612d4c565b90506139a0608083018561393a565b81810360a08301526139b28184612415565b9050979650505050505050565b600081519050919050565b600082825260208201905092915050565b6000819050602082019050919050565b600081519050919050565b600082825260208201905092915050565b6000613a12826139eb565b613a1c81856139f6565b9350613a2c8185602086016123eb565b613a3581611faf565b840191505092915050565b6000613a4c8383613a07565b905092915050565b6000602082019050919050565b6000613a6c826139bf565b613a7681856139ca565b935083602082028501613a88856139db565b8060005b85811015613ac45784840389528151613aa58582613a40565b9450613ab083613a54565b925060208a01995050600181019050613a8c565b50829750879550505050505092915050565b600060a082019050613aeb600083018861217f565b8181036020830152613afd8187613a61565b90508181036040830152613b118186612415565b9050613b20606083018561393a565b8181036080830152613b328184612415565b90509695505050505050565b7f416464726573733a2063616c6c20746f206e6f6e2d636f6e7472616374000000600082015250565b6000613b74601d836128ec565b9150613b7f82613b3e565b602082019050919050565b60006020820190508181036000830152613ba381613b67565b9050919050565b6000613bb582612264565b91507fffffffffffffffffffffffffffffffffffffffffffffffffffffffffffffffff8203613be757613be6613489565b5b600182019050919050565b6000613bfd82612264565b9150613c0883612264565b9250828202613c1681612264565b91508282048414831517613c2d57613c2c613489565b5b5092915050565b6000613c3f826139eb565b613c4981856128ec565b9350613c598185602086016123eb565b613c6281611faf565b840191505092915050565b60006020820190508181036000830152613c878184613c34565b90509291505056fea26469706673582212203df48cb664bac039851472da6615503a290db4de1f59ba80fcdb4a7c7bf2bf5c64736f6c63430008190033",
  "linkReferences": {
    "contracts/LabelUtils.sol": {
      "LabelUtils": [
        {
          "length": 20,
          "start": 2656
        },
        {
          "length": 20,
          "start": 2785
        },
        {
          "length": 20,
          "start": 2968
        },
        {
          "length": 20,
          "start": 3985
        }
      ]
    }
  },
  "deployedLinkReferences": {
    "contracts/LabelUtils.sol": {
      "LabelUtils": [
        {
          "length": 20,
          "start": 1220
        },
        {
          "length": 20,
          "start": 1349
        },
        {
          "length": 20,
          "start": 1532
        },
        {
          "length": 20,
          "start": 2549
        }
      ]
    }
  }
}