{
  "_format": "hh-sol-artifact-1",
  "contractName": "LabelUtils",
  "sourceName": "contracts/LabelUtils.sol",
  "abi": [
    {
      "inputs": [
        {
          "internalType": "bytes",
          "name": "name",
          "type": "bytes"
        }
      ],
      "name": "extractFirstLabel",
      "outputs": [
        {
          "internalType": "bytes",
          "name": "",
          "type": "bytes"
        }
      ],
      "stateMutability": "pure",
      "type": "function"
    },
    {
      "inputs": [
        {
          "internalType": "bytes",
          "name": "label",
          "type": "bytes"
        }
      ],
      "name": "extractNumericSuffix",
      "outputs": [
        {
          "internalType": "uint256",
          "name": "",
          "type": "uint256"
        }
      ],
      "stateMutability": "pure",
      "type": "function"
    }
  ],
  "bytecode": "0x610738610052600b82828239805160001a6073146045577f4e487b7100000000000000000000000000000000000000000000000000000000600052600060045260246000fd5b30600052607381538281f3fe73000000000000000000000000000000000000000030146080604052600436106100405760003560e01c806308dea91d1461004557806394bc2db614610075575b600080fd5b61005f600480360381019061005a9190610409565b6100a5565b60405161006c919061046b565b60405180910390f35b61008f600480360381019061008a9190610409565b610193565b60405161009c9190610505565b60405180910390f35b600080600090506000805b84518110156101485760008582815181106100ce576100cd610527565b5b602001015160f81c60f81b60f81c905060308160ff16101580156100f6575060398160ff1611155b1561012d576030816101089190610592565b60ff16600a8561011891906105c7565b6101229190610609565b93506001925061013a565b82156101395750610148565b5b5080806001019150506100b0565b5080610189576040517f08c379a00000000000000000000000000000000000000000000000000000000081526004016101809061069a565b60405180910390fd5b8192505050919050565b60606000808382815181106101ab576101aa610527565b5b602001015160f81c60f81b60f81c905081806101c6906106ba565b92505060008160ff1667ffffffffffffffff8111156101e8576101e76102de565b5b6040519080825280601f01601f19166020018201604052801561021a5781602001600182028036833780820191505090505b50905060005b8260ff168110156102a3578581856102389190610609565b8151811061024957610248610527565b5b602001015160f81c60f81b82828151811061026757610266610527565b5b60200101907effffffffffffffffffffffffffffffffffffffffffffffffffffffffffffff1916908160001a9053508080600101915050610220565b50809350505050919050565b6000604051905090565b600080fd5b600080fd5b600080fd5b600080fd5b6000601f19601f8301169050919050565b7f4e487b7100000000000000000000000000000000000000000000000000000000600052604160045260246000fd5b610316826102cd565b810181811067ffffffffffffffff82111715610335576103346102de565b5b80604052505050565b60006103486102af565b9050610354828261030d565b919050565b600067ffffffffffffffff821115610374576103736102de565b5b61037d826102cd565b9050602081019050919050565b82818337600083830152505050565b60006103ac6103a784610359565b61033e565b9050828152602081018484840111156103c8576103c76102c8565b5b6103d384828561038a565b509392505050565b600082601f8301126103f0576103ef6102c3565b5b8135610400848260208601610399565b91505092915050565b60006020828403121561041f5761041e6102b9565b5b600082013567ffffffffffffffff81111561043d5761043c6102be565b5b610449848285016103db565b91505092915050565b6000819050919050565b61046581610452565b82525050565b6000602082019050610480600083018461045c565b92915050565b600081519050919050565b600082825260208201905092915050565b60005b838110156104c05780820151818401526020810190506104a5565b60008484015250505050565b60006104d782610486565b6104e18185610491565b93506104f18185602086016104a2565b6104fa816102cd565b840191505092915050565b6000602082019050818103600083015261051f81846104cc565b905092915050565b7f4e487b7100000000000000000000000000000000000000000000000000000000600052603260045260246000fd5b600060ff82169050919050565b7f4e487b7100000000000000000000000000000000000000000000000000000000600052601160045260246000fd5b600061059d82610556565b91506105a883610556565b9250828203905060ff8111156105c1576105c0610563565b5b92915050565b60006105d282610452565b91506105dd83610452565b92508282026105eb81610452565b9150828204841483151761060257610601610563565b5b5092915050565b600061061482610452565b915061061f83610452565b925082820190508082111561063757610636610563565b5b92915050565b600082825260208201905092915050565b7f4e6f206e756d657269632073756666697820666f756e64000000000000000000600082015250565b600061068460178361063d565b915061068f8261064e565b602082019050919050565b600060208201905081810360008301526106b381610677565b9050919050565b60006106c582610452565b91507fffffffffffffffffffffffffffffffffffffffffffffffffffffffffffffffff82036106f7576106f6610563565b5b60018201905091905056fea2646970667358221220fd64dc77b8c67827745419800c3980f933551e388779f20784cc6bf95b81b97c64736f6c63430008190033",
  "linkReferences": {},
  "deployedLinkReferences": {}
}