{
  "_format": "hh-sol-artifact-1",
  "contractName": "NFTResolver",
  "sourceName": "contracts/NFTResolver.sol",
  "abi": [
    {
      "inputs": [
        {
          "internalType": "contract IEVMVerifier",
          "name": "_verifier",
          "type": "address"
        },
        {
          "internalType": "contract ENS",
          "name": "_ens",
          "type": "address"
        },
        {
          "internalType": "contract INameWrapper",
          "name": "_nameWrapper",
          "type": "address"
        },
        {
          "internalType": "uint256",
          "name": "_l2ChainId",
          "type": "uint256"
        }
      ],
      "stateMutability": "nonpayable",
      "type": "constructor"
    },
    {
      "inputs": [],
      "name": "CommandTooLong",
      "type": "error"
    },
    {
      "inputs": [
        {
          "internalType": "address",
          "name": "sender",
          "type": "address"
        },
        {
          "internalType": "string[]",
          "name": "urls",
          "type": "string[]"
        },
        {
          "internalType": "bytes",
          "name": "callData",
          "type": "bytes"
        },
        {
          "internalType": "bytes4",
          "name": "callbackFunction",
          "type": "bytes4"
        },
        {
          "internalType": "bytes",
          "name": "extraData",
          "type": "bytes"
        }
      ],
      "name": "OffchainLookup",
      "type": "error"
    },
    {
      "inputs": [
        {
          "internalType": "uint256",
          "name": "actual",
          "type": "uint256"
        },
        {
          "internalType": "uint256",
          "name": "expected",
          "type": "uint256"
        }
      ],
      "name": "ResponseLengthMismatch",
      "type": "error"
    },
    {
      "inputs": [
        {
          "internalType": "uint256",
          "name": "chainId",
          "type": "uint256"
        },
        {
          "internalType": "address",
          "name": "contractAddress",
          "type": "address"
        }
      ],
      "name": "StorageHandledByL2",
      "type": "error"
    },
    {
      "inputs": [
        {
          "internalType": "uint256",
          "name": "max",
          "type": "uint256"
        }
      ],
      "name": "TooManyCommands",
      "type": "error"
    },
    {
      "anonymous": false,
      "inputs": [
        {
          "indexed": false,
          "internalType": "bytes32",
          "name": "node",
          "type": "bytes32"
        },
        {
          "indexed": false,
          "internalType": "address",
          "name": "resolverAddr",
          "type": "address"
        }
      ],
      "name": "BaseNodeResolverSet",
      "type": "event"
    },
    {
      "anonymous": false,
      "inputs": [
        {
          "indexed": false,
          "internalType": "bytes32",
          "name": "node",
          "type": "bytes32"
        },
        {
          "indexed": false,
          "internalType": "uint256",
          "name": "slot",
          "type": "uint256"
        }
      ],
      "name": "TargetAddrSlotSet",
      "type": "event"
    },
    {
      "anonymous": false,
      "inputs": [
        {
          "indexed": false,
          "internalType": "bytes",
          "name": "name",
          "type": "bytes"
        },
        {
          "indexed": false,
          "internalType": "address",
          "name": "target",
          "type": "address"
        }
      ],
      "name": "TargetSet",
      "type": "event"
    },
    {
      "inputs": [
        {
          "internalType": "bytes[]",
          "name": "values",
          "type": "bytes[]"
        },
        {
          "internalType": "bytes",
          "name": "",
          "type": "bytes"
        }
      ],
      "name": "addrCallback",
      "outputs": [
        {
          "internalType": "bytes",
          "name": "",
          "type": "bytes"
        }
      ],
      "stateMutability": "pure",
      "type": "function"
    },
    {
      "inputs": [],
      "name": "ens",
      "outputs": [
        {
          "internalType": "contract ENS",
          "name": "",
          "type": "address"
        }
      ],
      "stateMutability": "view",
      "type": "function"
    },
    {
      "inputs": [
        {
          "internalType": "bytes",
          "name": "name",
          "type": "bytes"
        }
      ],
      "name": "extractNFTId",
      "outputs": [
        {
          "internalType": "uint256",
          "name": "",
          "type": "uint256"
        }
      ],
      "stateMutability": "pure",
      "type": "function"
    },
    {
      "inputs": [],
      "name": "getAcceptedL2BlockRangeLength",
      "outputs": [
        {
          "internalType": "uint256",
          "name": "",
          "type": "uint256"
        }
      ],
      "stateMutability": "pure",
      "type": "function"
    },
    {
      "inputs": [
        {
          "internalType": "bytes",
          "name": "response",
          "type": "bytes"
        },
        {
          "internalType": "bytes",
          "name": "extradata",
          "type": "bytes"
        }
      ],
      "name": "getStorageSlotsCallback",
      "outputs": [
        {
          "internalType": "bytes",
          "name": "",
          "type": "bytes"
        }
      ],
      "stateMutability": "nonpayable",
      "type": "function"
    },
    {
      "inputs": [
        {
          "internalType": "bytes",
          "name": "name",
          "type": "bytes"
        }
      ],
      "name": "getTarget",
      "outputs": [
        {
          "internalType": "bytes32",
          "name": "node",
          "type": "bytes32"
        },
        {
          "internalType": "address",
          "name": "target",
          "type": "address"
        }
      ],
      "stateMutability": "view",
      "type": "function"
    },
    {
      "inputs": [],
      "name": "l2ChainId",
      "outputs": [
        {
          "internalType": "uint256",
          "name": "",
          "type": "uint256"
        }
      ],
      "stateMutability": "view",
      "type": "function"
    },
    {
      "inputs": [],
      "name": "nameWrapper",
      "outputs": [
        {
          "internalType": "contract INameWrapper",
          "name": "",
          "type": "address"
        }
      ],
      "stateMutability": "view",
      "type": "function"
    },
    {
      "inputs": [
        {
          "internalType": "bytes",
          "name": "name",
          "type": "bytes"
        },
        {
          "internalType": "bytes",
          "name": "data",
          "type": "bytes"
        }
      ],
      "name": "resolve",
      "outputs": [
        {
          "internalType": "bytes",
          "name": "result",
          "type": "bytes"
        }
      ],
      "stateMutability": "view",
      "type": "function"
    },
    {
      "inputs": [
        {
          "internalType": "bytes",
          "name": "name",
          "type": "bytes"
        },
        {
          "internalType": "address",
          "name": "_addr",
          "type": "address"
        }
      ],
      "name": "setAddr",
      "outputs": [
        {
          "internalType": "bytes",
          "name": "result",
          "type": "bytes"
        }
      ],
      "stateMutability": "view",
      "type": "function"
    },
    {
      "inputs": [
        {
          "internalType": "bytes",
          "name": "name",
          "type": "bytes"
        },
        {
          "internalType": "address",
          "name": "resolverAddr",
          "type": "address"
        }
      ],
      "name": "setBaseNodeResolver",
      "outputs": [],
      "stateMutability": "nonpayable",
      "type": "function"
    },
    {
      "inputs": [
        {
          "internalType": "bytes",
          "name": "name",
          "type": "bytes"
        },
        {
          "internalType": "address",
          "name": "target",
          "type": "address"
        }
      ],
      "name": "setTarget",
      "outputs": [],
      "stateMutability": "nonpayable",
      "type": "function"
    },
    {
      "inputs": [
        {
          "internalType": "bytes",
          "name": "name",
          "type": "bytes"
        },
        {
          "internalType": "uint256",
          "name": "slot",
          "type": "uint256"
        }
      ],
      "name": "setTargetAddrSlot",
      "outputs": [],
      "stateMutability": "nonpayable",
      "type": "function"
    },
    {
      "inputs": [
        {
          "internalType": "bytes4",
          "name": "interfaceId",
          "type": "bytes4"
        }
      ],
      "name": "supportsInterface",
      "outputs": [
        {
          "internalType": "bool",
          "name": "",
          "type": "bool"
        }
      ],
      "stateMutability": "view",
      "type": "function"
    },
    {
      "inputs": [],
      "name": "verifier",
      "outputs": [
        {
          "internalType": "contract IEVMVerifier",
          "name": "",
          "type": "address"
        }
      ],
      "stateMutability": "view",
      "type": "function"
    }
  ],
  "bytecode": "0x61010060405234801561001157600080fd5b506040516140e13803806140e183398181016040528101906100339190610354565b600073ffffffffffffffffffffffffffffffffffffffff168273ffffffffffffffffffffffffffffffffffffffff16036100a2576040517f08c379a000000000000000000000000000000000000000000000000000000000815260040161009990610418565b60405180910390fd5b600073ffffffffffffffffffffffffffffffffffffffff168473ffffffffffffffffffffffffffffffffffffffff1603610111576040517f08c379a000000000000000000000000000000000000000000000000000000000815260040161010890610484565b60405180910390fd5b600073ffffffffffffffffffffffffffffffffffffffff168373ffffffffffffffffffffffffffffffffffffffff1603610180576040517f08c379a0000000000000000000000000000000000000000000000000000000008152600401610177906104f0565b60405180910390fd5b8373ffffffffffffffffffffffffffffffffffffffff1660808173ffffffffffffffffffffffffffffffffffffffff16815250508273ffffffffffffffffffffffffffffffffffffffff1660a08173ffffffffffffffffffffffffffffffffffffffff16815250508173ffffffffffffffffffffffffffffffffffffffff1660c08173ffffffffffffffffffffffffffffffffffffffff16815250508060e0818152505050505050610510565b600080fd5b600073ffffffffffffffffffffffffffffffffffffffff82169050919050565b600061025d82610232565b9050919050565b600061026f82610252565b9050919050565b61027f81610264565b811461028a57600080fd5b50565b60008151905061029c81610276565b92915050565b60006102ad82610252565b9050919050565b6102bd816102a2565b81146102c857600080fd5b50565b6000815190506102da816102b4565b92915050565b60006102eb82610252565b9050919050565b6102fb816102e0565b811461030657600080fd5b50565b600081519050610318816102f2565b92915050565b6000819050919050565b6103318161031e565b811461033c57600080fd5b50565b60008151905061034e81610328565b92915050565b6000806000806080858703121561036e5761036d61022d565b5b600061037c8782880161028d565b945050602061038d878288016102cb565b935050604061039e87828801610309565b92505060606103af8782880161033f565b91505092959194509250565b600082825260208201905092915050565b7f4e616d6520577261707065722061646472657373206d75737420626520736574600082015250565b60006104026020836103bb565b915061040d826103cc565b602082019050919050565b60006020820190508181036000830152610431816103f5565b9050919050565b7f56657269666965722061646472657373206d7573742062652073657400000000600082015250565b600061046e601c836103bb565b915061047982610438565b602082019050919050565b6000602082019050818103600083015261049d81610461565b9050919050565b7f52656769737472792061646472657373206d7573742062652073657400000000600082015250565b60006104da601c836103bb565b91506104e5826104a4565b602082019050919050565b60006020820190508181036000830152610509816104cd565b9050919050565b60805160a05160c05160e051613b7561056c60003960008181610f61015261163f015260008181610bf50152818161151501526115680152600081816106780152611479015260008181610654015261141d0152613b756000f3fe608060405234801561001057600080fd5b50600436106100f55760003560e01c80639061b92311610097578063d358df7711610066578063d358df771461029b578063d6ae3cd5146102b7578063f00eebf4146102d5578063f470901a14610305576100f5565b80639061b92314610215578063a8e5fbc014610245578063ac177c3714610263578063ac8a4a5d1461027f576100f5565b80632b7ac3f3116100d35780632b7ac3f31461018b5780633f15457f146101a95780635bdaa916146101c75780636d74e86e146101f7576100f5565b806301ffc9a7146100fa57806315f643861461012a5780631a33ddae1461015b575b600080fd5b610114600480360381019061010f9190611e4f565b610335565b6040516101219190611e97565b60405180910390f35b610144600480360381019061013f9190611ff8565b61047f565b60405161015292919061209b565b60405180910390f35b61017560048036038101906101709190612124565b610496565b604051610182919061218a565b60405180910390f35b610193610652565b6040516101a09190612204565b60405180910390f35b6101b1610676565b6040516101be9190612240565b60405180910390f35b6101e160048036038101906101dc919061225b565b61069a565b6040516101ee919061235b565b60405180910390f35b6101ff610854565b60405161020c919061218a565b60405180910390f35b61022f600480360381019061022a919061225b565b61085f565b60405161023c919061235b565b60405180910390f35b61024d610bf3565b60405161025a919061239e565b60405180910390f35b61027d600480360381019061027891906123e5565b610c17565b005b61029960048036038101906102949190612471565b610d08565b005b6102b560048036038101906102b09190612471565b610e33565b005b6102bf610f5f565b6040516102cc919061218a565b60405180910390f35b6102ef60048036038101906102ea9190612471565b610f83565b6040516102fc919061235b565b60405180910390f35b61031f600480360381019061031a91906125b2565b610fea565b60405161032c919061235b565b60405180910390f35b60007f9061b923000000000000000000000000000000000000000000000000000000007bffffffffffffffffffffffffffffffffffffffffffffffffffffffff1916827bffffffffffffffffffffffffffffffffffffffffffffffffffffffff1916148061040057507f15f64386000000000000000000000000000000000000000000000000000000007bffffffffffffffffffffffffffffffffffffffffffffffffffffffff1916827bffffffffffffffffffffffffffffffffffffffffffffffffffffffff1916145b8061046857507ff00eebf4000000000000000000000000000000000000000000000000000000007bffffffffffffffffffffffffffffffffffffffffffffffffffffffff1916827bffffffffffffffffffffffffffffffffffffffffffffffffffffffff1916145b80610478575061047782611048565b5b9050919050565b60008061048d8360006110b2565b91509150915091565b60008073__$9c99182377933a0292ee16286dad4ecc22$__6394bc2db685856040518363ffffffff1660e01b81526004016104d2929190612668565b600060405180830381865af41580156104ef573d6000803e3d6000fd5b505050506040513d6000823e3d601f19601f8201168201806040525081019061051891906126fc565b905073__$9c99182377933a0292ee16286dad4ecc22$__63e5c4cf73826040518263ffffffff1660e01b8152600401610551919061277e565b602060405180830381865af415801561056e573d6000803e3d6000fd5b505050506040513d601f19601f8201168201806040525081019061059291906127cc565b6105d1576040517f08c379a00000000000000000000000000000000000000000000000000000000081526004016105c890612856565b60405180910390fd5b73__$9c99182377933a0292ee16286dad4ecc22$__6308dea91d826040518263ffffffff1660e01b8152600401610608919061277e565b602060405180830381865af4158015610625573d6000803e3d6000fd5b505050506040513d601f19601f82011682018060405250810190610649919061288b565b91505092915050565b7f000000000000000000000000000000000000000000000000000000000000000081565b7f000000000000000000000000000000000000000000000000000000000000000081565b6060600085858101906106ad9190611ff8565b905060008060008060008089898101906106c79190612a23565b95509550955095509550955060008673ffffffffffffffffffffffffffffffffffffffff1663c51ca02a8787878c6106fd610854565b6040518663ffffffff1660e01b815260040161071d959493929190612cce565b600060405180830381865afa15801561073a573d6000803e3d6000fd5b505050506040513d6000823e3d601f19601f820116820180604052508101906107639190612deb565b905084518151146107af57805185516040517f291894250000000000000000000000000000000000000000000000000000000081526004016107a6929190612e34565b60405180910390fd5b600061084a8483856040516024016107c8929190612e5d565b604051602081830303815290604052907bffffffffffffffffffffffffffffffffffffffffffffffffffffffff19166020820180517bffffffffffffffffffffffffffffffffffffffffffffffffffffffff83818316178352505050503073ffffffffffffffffffffffffffffffffffffffff1661121b90919063ffffffff16565b9050805160208201f35b600062015180905090565b606060048383905010156108a8576040517f08c379a000000000000000000000000000000000000000000000000000000000815260040161089f90612ee0565b60405180910390fd5b6000838360049080926108bd93929190612f0a565b8101906108ca9190612f45565b905060008073ffffffffffffffffffffffffffffffffffffffff1660008084815260200190815260200160002060009054906101000a900473ffffffffffffffffffffffffffffffffffffffff1673ffffffffffffffffffffffffffffffffffffffff161415905080156109c85760006001600084815260200190815260200160002060009054906101000a900473ffffffffffffffffffffffffffffffffffffffff1690506109be8187878080601f016020809104026020016040519081016040528093929190818152602001838380828437600081840152601f19601f82011690508083019250505050505050611267565b9350505050610beb565b600373__$9c99182377933a0292ee16286dad4ecc22$__634062ace389896040518363ffffffff1660e01b8152600401610a03929190612668565b602060405180830381865af4158015610a20573d6000803e3d6000fd5b505050506040513d601f19601f82011682018060405250810190610a44919061288b565b1115610a85576040517f08c379a0000000000000000000000000000000000000000000000000000000008152600401610a7c90612fbe565b60405180910390fd5b6000858590610a949190612ff6565b9050633b3b57de60e01b7bffffffffffffffffffffffffffffffffffffffffffffffffffffffff1916817bffffffffffffffffffffffffffffffffffffffffffffffffffffffff191603610bb0576000610b3389898080601f016020809104026020016040519081016040528093929190818152602001838380828437600081840152601f19601f8201169050808301925050505050505060006110b2565b9150506000610b878a8a8080601f016020809104026020016040519081016040528093929190818152602001838380828437600081840152601f19601f8201169050808301925050505050505060006112f4565b9150506000610b968b8b610496565b9050610ba38183856113f3565b9650505050505050610beb565b6040517f08c379a0000000000000000000000000000000000000000000000000000000008152600401610be2906130a1565b60405180910390fd5b949350505050565b7f000000000000000000000000000000000000000000000000000000000000000081565b6000610c6684848080601f016020809104026020016040519081016040528093929190818152602001838380828437600081840152601f19601f8201169050808301925050505050505061047f565b509050610c7281611474565b610cb1576040517f08c379a0000000000000000000000000000000000000000000000000000000008152600401610ca890613133565b60405180910390fd5b8160026000838152602001908152602001600020819055507f413132acc9ccea5372990b9b254ea77f60bc509acac666b464e5b4ff9f1d3f058183604051610cfa929190613153565b60405180910390a150505050565b6000610d5784848080601f016020809104026020016040519081016040528093929190818152602001838380828437600081840152601f19601f8201169050808301925050505050505061047f565b509050610d6381611474565b610da2576040517f08c379a0000000000000000000000000000000000000000000000000000000008152600401610d99906131ee565b60405180910390fd5b816001600083815260200190815260200160002060006101000a81548173ffffffffffffffffffffffffffffffffffffffff021916908373ffffffffffffffffffffffffffffffffffffffff1602179055507f0704dfb2f4b8f24190956226460d0667a92b988de5055430d52e6b0315922e2c8183604051610e2592919061209b565b60405180910390a150505050565b6000610e8284848080601f016020809104026020016040519081016040528093929190818152602001838380828437600081840152601f19601f8201169050808301925050505050505061047f565b509050610e8e81611474565b610ecd576040517f08c379a0000000000000000000000000000000000000000000000000000000008152600401610ec490613280565b60405180910390fd5b8160008083815260200190815260200160002060006101000a81548173ffffffffffffffffffffffffffffffffffffffff021916908373ffffffffffffffffffffffffffffffffffffffff1602179055507f88781081cc340609705af0f96bf3ba64ea267873444e91725bd072f2af0f44d8848484604051610f51939291906132cd565b60405180910390a150505050565b7f000000000000000000000000000000000000000000000000000000000000000081565b60606000610fd685858080601f016020809104026020016040519081016040528093929190818152602001838380828437600081840152601f19601f8201169050808301925050505050505060006110b2565b915050610fe28161163d565b509392505050565b6060600083600081518110611002576110016132ff565b5b602002602001015180602001905181019061101d9190613343565b9050806040516020016110309190613370565b60405160208183030381529060405291505092915050565b60007f01ffc9a7000000000000000000000000000000000000000000000000000000007bffffffffffffffffffffffffffffffffffffffffffffffffffffffff1916827bffffffffffffffffffffffffffffffffffffffffffffffffffffffff1916149050919050565b60008060006110ca848661169c90919063ffffffff16565b60ff1690506000801b925060008111156112025760006111016001866110f091906133ba565b83886116c79092919063ffffffff16565b9050611124866001848861111591906133ba565b61111f91906133ba565b6110b2565b8094508195505050838160405160200161113f92919061340f565b604051602081830303815290604052805190602001209350600073ffffffffffffffffffffffffffffffffffffffff1660008086815260200190815260200160002060009054906101000a900473ffffffffffffffffffffffffffffffffffffffff1673ffffffffffffffffffffffffffffffffffffffff16146111fc578360008086815260200190815260200160002060009054906101000a900473ffffffffffffffffffffffffffffffffffffffff16935093505050611214565b50611212565b6000801b60009250925050611214565b505b9250929050565b606061125f838360006040518060400160405280601e81526020017f416464726573733a206c6f772d6c6576656c2063616c6c206661696c656400008152506116f3565b905092915050565b60606000808473ffffffffffffffffffffffffffffffffffffffff16846040516112919190613477565b600060405180830381855afa9150503d80600081146112cc576040519150601f19603f3d011682016040523d82523d6000602084013e6112d1565b606091505b509150915081156112e65780925050506112ee565b805160208201fd5b92915050565b600080600061130c848661169c90919063ffffffff16565b60ff1690506000801b925060008111156113da57600061134360018661133291906133ba565b83886116c79092919063ffffffff16565b9050611366866001848861135791906133ba565b61136191906133ba565b6112f4565b8094508195505050838160405160200161138192919061340f565b60405160208183030381529060405280519060200120935060006002600086815260200190815260200160002054146113d4578360026000868152602001908152602001600020549350935050506113ec565b506113ea565b6000801b600092509250506113ec565b505b9250929050565b606061146d63f470901a60e01b6040518060200160405280600081525061145e87611450886114427f00000000000000000000000000000000000000000000000000000000000000008a6117c0565b6118cf90919063ffffffff16565b6119b090919063ffffffff16565b611a319092919063ffffffff16565b9392505050565b6000807f000000000000000000000000000000000000000000000000000000000000000073ffffffffffffffffffffffffffffffffffffffff166302571be3846040518263ffffffff1660e01b81526004016114d0919061348e565b602060405180830381865afa1580156114ed573d6000803e3d6000fd5b505050506040513d601f19601f8201168201806040525081019061151191906134be565b90507f000000000000000000000000000000000000000000000000000000000000000073ffffffffffffffffffffffffffffffffffffffff168173ffffffffffffffffffffffffffffffffffffffff1603611606577f000000000000000000000000000000000000000000000000000000000000000073ffffffffffffffffffffffffffffffffffffffff16636352211e8460001c6040518263ffffffff1660e01b81526004016115c2919061218a565b602060405180830381865afa1580156115df573d6000803e3d6000fd5b505050506040513d601f19601f8201168201806040525081019061160391906134be565b90505b3373ffffffffffffffffffffffffffffffffffffffff168173ffffffffffffffffffffffffffffffffffffffff1614915050919050565b7f0000000000000000000000000000000000000000000000000000000000000000816040517fe0a050710000000000000000000000000000000000000000000000000000000081526004016116939291906134eb565b60405180910390fd5b60008282815181106116b1576116b06132ff565b5b602001015160f81c60f81b60f81c905092915050565b6000835182846116d791906133ba565b11156116e257600080fd5b818360208601012090509392505050565b606082471015611738576040517f08c379a000000000000000000000000000000000000000000000000000000000815260040161172f90613586565b60405180910390fd5b6000808673ffffffffffffffffffffffffffffffffffffffff1685876040516117619190613477565b60006040518083038185875af1925050503d806000811461179e576040519150601f19603f3d011682016040523d82523d6000602084013e6117a3565b606091505b50915091506117b487838387611bbc565b92505050949350505050565b6117c8611d88565b6000602067ffffffffffffffff8111156117e5576117e4611ecd565b5b6040519080825280602002602001820160405280156118135781602001602082028036833780820191505090505b5090506000602067ffffffffffffffff81111561183357611832611ecd565b5b60405190808252806020026020018201604052801561186657816020015b60608152602001906001900390816118515790505b50905060008252600081526040518060a001604052808673ffffffffffffffffffffffffffffffffffffffff1681526020018573ffffffffffffffffffffffffffffffffffffffff16815260200183815260200160008152602001828152509250505092915050565b6118d7611d88565b6000836040015190506000815190506000811180156118fa575060208560600151105b1561190b5761190a8560ff611c31565b5b6001810182526020856040015151111561195d5760206040517f128e7008000000000000000000000000000000000000000000000000000000008152600401611954919061218a565b60405180910390fd5b6000856060018181525050611973856000611c31565b6119a5856119a0878760405160200161198c919061218a565b604051602081830303815290604052611cd8565b611c31565b849250505092915050565b6119b8611d88565b60208360600151106119f6576040517fb00fd63800000000000000000000000000000000000000000000000000000000815260040160405180910390fd5b611a2883611a238585604051602001611a0f919061218a565b604051602081830303815290604052611cd8565b611c31565b82905092915050565b6000836040015151118015611a4a575060208360600151105b15611a5b57611a5a8360ff611c31565b5b30836000015173ffffffffffffffffffffffffffffffffffffffff1663b50f2fbc6040518163ffffffff1660e01b8152600401600060405180830381865afa158015611aab573d6000803e3d6000fd5b505050506040513d6000823e3d601f19601f82011682018060405250810190611ad49190613728565b846020015185604001518660800151604051602401611af593929190613771565b60405160208183030381529060405263ea9cd3bf60e01b6020820180517bffffffffffffffffffffffffffffffffffffffffffffffffffffffff8381831617835250505050635bdaa91660e01b86600001518760200151886040015189608001518989604051602001611b6d969594939291906137c5565b6040516020818303038152906040526040517f556f1830000000000000000000000000000000000000000000000000000000008152600401611bb3959493929190613952565b60405180910390fd5b60608315611c1e576000835103611c1657611bd685611d15565b611c15576040517f08c379a0000000000000000000000000000000000000000000000000000000008152600401611c0c90613a06565b60405180910390fd5b5b829050611c29565b611c288383611d38565b5b949350505050565b60006001836040015151611c459190613a26565b9050826060018051809190611c5990613a5a565b8152506008611c689190613aa2565b8260f81b7effffffffffffffffffffffffffffffffffffffffffffffffffffffffffffff1916901c83604001518281518110611ca757611ca66132ff565b5b60200260200101511783604001518281518110611cc757611cc66132ff565b5b602002602001018181525050505050565b600080836080015190508051915060018201815282818360ff1681518110611d0357611d026132ff565b5b60200260200101819052505092915050565b6000808273ffffffffffffffffffffffffffffffffffffffff163b119050919050565b600082511115611d4b5781518083602001fd5b806040517f08c379a0000000000000000000000000000000000000000000000000000000008152600401611d7f9190613b1d565b60405180910390fd5b6040518060a00160405280600073ffffffffffffffffffffffffffffffffffffffff168152602001600073ffffffffffffffffffffffffffffffffffffffff1681526020016060815260200160008152602001606081525090565b6000604051905090565b600080fd5b600080fd5b60007fffffffff0000000000000000000000000000000000000000000000000000000082169050919050565b611e2c81611df7565b8114611e3757600080fd5b50565b600081359050611e4981611e23565b92915050565b600060208284031215611e6557611e64611ded565b5b6000611e7384828501611e3a565b91505092915050565b60008115159050919050565b611e9181611e7c565b82525050565b6000602082019050611eac6000830184611e88565b92915050565b600080fd5b600080fd5b6000601f19601f8301169050919050565b7f4e487b7100000000000000000000000000000000000000000000000000000000600052604160045260246000fd5b611f0582611ebc565b810181811067ffffffffffffffff82111715611f2457611f23611ecd565b5b80604052505050565b6000611f37611de3565b9050611f438282611efc565b919050565b600067ffffffffffffffff821115611f6357611f62611ecd565b5b611f6c82611ebc565b9050602081019050919050565b82818337600083830152505050565b6000611f9b611f9684611f48565b611f2d565b905082815260208101848484011115611fb757611fb6611eb7565b5b611fc2848285611f79565b509392505050565b600082601f830112611fdf57611fde611eb2565b5b8135611fef848260208601611f88565b91505092915050565b60006020828403121561200e5761200d611ded565b5b600082013567ffffffffffffffff81111561202c5761202b611df2565b5b61203884828501611fca565b91505092915050565b6000819050919050565b61205481612041565b82525050565b600073ffffffffffffffffffffffffffffffffffffffff82169050919050565b60006120858261205a565b9050919050565b6120958161207a565b82525050565b60006040820190506120b0600083018561204b565b6120bd602083018461208c565b9392505050565b600080fd5b600080fd5b60008083601f8401126120e4576120e3611eb2565b5b8235905067ffffffffffffffff811115612101576121006120c4565b5b60208301915083600182028301111561211d5761211c6120c9565b5b9250929050565b6000806020838503121561213b5761213a611ded565b5b600083013567ffffffffffffffff81111561215957612158611df2565b5b612165858286016120ce565b92509250509250929050565b6000819050919050565b61218481612171565b82525050565b600060208201905061219f600083018461217b565b92915050565b6000819050919050565b60006121ca6121c56121c08461205a565b6121a5565b61205a565b9050919050565b60006121dc826121af565b9050919050565b60006121ee826121d1565b9050919050565b6121fe816121e3565b82525050565b600060208201905061221960008301846121f5565b92915050565b600061222a826121d1565b9050919050565b61223a8161221f565b82525050565b60006020820190506122556000830184612231565b92915050565b6000806000806040858703121561227557612274611ded565b5b600085013567ffffffffffffffff81111561229357612292611df2565b5b61229f878288016120ce565b9450945050602085013567ffffffffffffffff8111156122c2576122c1611df2565b5b6122ce878288016120ce565b925092505092959194509250565b600081519050919050565b600082825260208201905092915050565b60005b838110156123165780820151818401526020810190506122fb565b60008484015250505050565b600061232d826122dc565b61233781856122e7565b93506123478185602086016122f8565b61235081611ebc565b840191505092915050565b600060208201905081810360008301526123758184612322565b905092915050565b6000612388826121d1565b9050919050565b6123988161237d565b82525050565b60006020820190506123b3600083018461238f565b92915050565b6123c281612171565b81146123cd57600080fd5b50565b6000813590506123df816123b9565b92915050565b6000806000604084860312156123fe576123fd611ded565b5b600084013567ffffffffffffffff81111561241c5761241b611df2565b5b612428868287016120ce565b9350935050602061243b868287016123d0565b9150509250925092565b61244e8161207a565b811461245957600080fd5b50565b60008135905061246b81612445565b92915050565b60008060006040848603121561248a57612489611ded565b5b600084013567ffffffffffffffff8111156124a8576124a7611df2565b5b6124b4868287016120ce565b935093505060206124c78682870161245c565b9150509250925092565b600067ffffffffffffffff8211156124ec576124eb611ecd565b5b602082029050602081019050919050565b600061251061250b846124d1565b611f2d565b90508083825260208201905060208402830185811115612533576125326120c9565b5b835b8181101561257a57803567ffffffffffffffff81111561255857612557611eb2565b5b8086016125658982611fca565b85526020850194505050602081019050612535565b5050509392505050565b600082601f83011261259957612598611eb2565b5b81356125a98482602086016124fd565b91505092915050565b600080604083850312156125c9576125c8611ded565b5b600083013567ffffffffffffffff8111156125e7576125e6611df2565b5b6125f385828601612584565b925050602083013567ffffffffffffffff81111561261457612613611df2565b5b61262085828601611fca565b9150509250929050565b600082825260208201905092915050565b6000612647838561262a565b9350612654838584611f79565b61265d83611ebc565b840190509392505050565b6000602082019050818103600083015261268381848661263b565b90509392505050565b600061269f61269a84611f48565b611f2d565b9050828152602081018484840111156126bb576126ba611eb7565b5b6126c68482856122f8565b509392505050565b600082601f8301126126e3576126e2611eb2565b5b81516126f384826020860161268c565b91505092915050565b60006020828403121561271257612711611ded565b5b600082015167ffffffffffffffff8111156127305761272f611df2565b5b61273c848285016126ce565b91505092915050565b6000612750826122dc565b61275a818561262a565b935061276a8185602086016122f8565b61277381611ebc565b840191505092915050565b600060208201905081810360008301526127988184612745565b905092915050565b6127a981611e7c565b81146127b457600080fd5b50565b6000815190506127c6816127a0565b92915050565b6000602082840312156127e2576127e1611ded565b5b60006127f0848285016127b7565b91505092915050565b600082825260208201905092915050565b7f4c6162656c206973206e6f742061206e756d6265720000000000000000000000600082015250565b60006128406015836127f9565b915061284b8261280a565b602082019050919050565b6000602082019050818103600083015261286f81612833565b9050919050565b600081519050612885816123b9565b92915050565b6000602082840312156128a1576128a0611ded565b5b60006128af84828501612876565b91505092915050565b60006128c38261207a565b9050919050565b6128d3816128b8565b81146128de57600080fd5b50565b6000813590506128f0816128ca565b92915050565b60006129018261205a565b9050919050565b612911816128f6565b811461291c57600080fd5b50565b60008135905061292e81612908565b92915050565b600067ffffffffffffffff82111561294f5761294e611ecd565b5b602082029050602081019050919050565b61296981612041565b811461297457600080fd5b50565b60008135905061298681612960565b92915050565b600061299f61299a84612934565b611f2d565b905080838252602082019050602084028301858111156129c2576129c16120c9565b5b835b818110156129eb57806129d78882612977565b8452602084019350506020810190506129c4565b5050509392505050565b600082601f830112612a0a57612a09611eb2565b5b8135612a1a84826020860161298c565b91505092915050565b60008060008060008060c08789031215612a4057612a3f611ded565b5b6000612a4e89828a016128e1565b9650506020612a5f89828a0161291f565b955050604087013567ffffffffffffffff811115612a8057612a7f611df2565b5b612a8c89828a016129f5565b945050606087013567ffffffffffffffff811115612aad57612aac611df2565b5b612ab989828a01612584565b9350506080612aca89828a01611e3a565b92505060a087013567ffffffffffffffff811115612aeb57612aea611df2565b5b612af789828a01611fca565b9150509295509295509295565b600081519050919050565b600082825260208201905092915050565b6000819050602082019050919050565b612b3981612041565b82525050565b6000612b4b8383612b30565b60208301905092915050565b6000602082019050919050565b6000612b6f82612b04565b612b798185612b0f565b9350612b8483612b20565b8060005b83811015612bb5578151612b9c8882612b3f565b9750612ba783612b57565b925050600181019050612b88565b5085935050505092915050565b600081519050919050565b600082825260208201905092915050565b6000819050602082019050919050565b600082825260208201905092915050565b6000612c0a826122dc565b612c148185612bee565b9350612c248185602086016122f8565b612c2d81611ebc565b840191505092915050565b6000612c448383612bff565b905092915050565b6000602082019050919050565b6000612c6482612bc2565b612c6e8185612bcd565b935083602082028501612c8085612bde565b8060005b85811015612cbc5784840389528151612c9d8582612c38565b9450612ca883612c4c565b925060208a01995050600181019050612c84565b50829750879550505050505092915050565b600060a082019050612ce3600083018861208c565b8181036020830152612cf58187612b64565b90508181036040830152612d098186612c59565b90508181036060830152612d1d8185612322565b9050612d2c608083018461217b565b9695505050505050565b6000612d49612d44846124d1565b611f2d565b90508083825260208201905060208402830185811115612d6c57612d6b6120c9565b5b835b81811015612db357805167ffffffffffffffff811115612d9157612d90611eb2565b5b808601612d9e89826126ce565b85526020850194505050602081019050612d6e565b5050509392505050565b600082601f830112612dd257612dd1611eb2565b5b8151612de2848260208601612d36565b91505092915050565b600060208284031215612e0157612e00611ded565b5b600082015167ffffffffffffffff811115612e1f57612e1e611df2565b5b612e2b84828501612dbd565b91505092915050565b6000604082019050612e49600083018561217b565b612e56602083018461217b565b9392505050565b60006040820190508181036000830152612e778185612c59565b90508181036020830152612e8b8184612322565b90509392505050565b7f706172616d206461746120746f6f2073686f7274000000000000000000000000600082015250565b6000612eca6014836127f9565b9150612ed582612e94565b602082019050919050565b60006020820190508181036000830152612ef981612ebd565b9050919050565b600080fd5b600080fd5b60008085851115612f1e57612f1d612f00565b5b83861115612f2f57612f2e612f05565b5b6001850283019150848603905094509492505050565b600060208284031215612f5b57612f5a611ded565b5b6000612f6984828501612977565b91505092915050565b7f546f6f206d616e7920737562646f6d61696e206c6576656c7300000000000000600082015250565b6000612fa86019836127f9565b9150612fb382612f72565b602082019050919050565b60006020820190508181036000830152612fd781612f9b565b9050919050565b600082905092915050565b600082821b905092915050565b60006130028383612fde565b8261300d8135611df7565b9250600482101561304d576130487fffffffff0000000000000000000000000000000000000000000000000000000083600403600802612fe9565b831692505b505092915050565b7f696e76616c69642073656c6563746f7200000000000000000000000000000000600082015250565b600061308b6010836127f9565b915061309682613055565b602082019050919050565b600060208201905081810360008301526130ba8161307e565b9050919050565b7f4e6f7420617574686f72697a656420746f20736574207461726765742061646460008201527f7265737320736c6f7420666f722074686973206e6f6465000000000000000000602082015250565b600061311d6037836127f9565b9150613128826130c1565b604082019050919050565b6000602082019050818103600083015261314c81613110565b9050919050565b6000604082019050613168600083018561204b565b613175602083018461217b565b9392505050565b7f4e6f7420617574686f72697a656420746f20736574207265736f6c766572206660008201527f6f722074686973206e6f64650000000000000000000000000000000000000000602082015250565b60006131d8602c836127f9565b91506131e38261317c565b604082019050919050565b60006020820190508181036000830152613207816131cb565b9050919050565b7f4e6f7420617574686f72697a656420746f207365742074617267657420666f7260008201527f2074686973206e6f646500000000000000000000000000000000000000000000602082015250565b600061326a602a836127f9565b91506132758261320e565b604082019050919050565b600060208201905081810360008301526132998161325d565b9050919050565b60006132ac83856122e7565b93506132b9838584611f79565b6132c283611ebc565b840190509392505050565b600060408201905081810360008301526132e88185876132a0565b90506132f7602083018461208c565b949350505050565b7f4e487b7100000000000000000000000000000000000000000000000000000000600052603260045260246000fd5b60008151905061333d81612908565b92915050565b60006020828403121561335957613358611ded565b5b60006133678482850161332e565b91505092915050565b6000602082019050613385600083018461208c565b92915050565b7f4e487b7100000000000000000000000000000000000000000000000000000000600052601160045260246000fd5b60006133c582612171565b91506133d083612171565b92508282019050808211156133e8576133e761338b565b5b92915050565b6000819050919050565b61340961340482612041565b6133ee565b82525050565b600061341b82856133f8565b60208201915061342b82846133f8565b6020820191508190509392505050565b600081905092915050565b6000613451826122dc565b61345b818561343b565b935061346b8185602086016122f8565b80840191505092915050565b60006134838284613446565b915081905092915050565b60006020820190506134a3600083018461204b565b92915050565b6000815190506134b881612445565b92915050565b6000602082840312156134d4576134d3611ded565b5b60006134e2848285016134a9565b91505092915050565b6000604082019050613500600083018561217b565b61350d602083018461208c565b9392505050565b7f416464726573733a20696e73756666696369656e742062616c616e636520666f60008201527f722063616c6c0000000000000000000000000000000000000000000000000000602082015250565b60006135706026836127f9565b915061357b82613514565b604082019050919050565b6000602082019050818103600083015261359f81613563565b9050919050565b600067ffffffffffffffff8211156135c1576135c0611ecd565b5b602082029050602081019050919050565b600067ffffffffffffffff8211156135ed576135ec611ecd565b5b6135f682611ebc565b9050602081019050919050565b6000613616613611846135d2565b611f2d565b90508281526020810184848401111561363257613631611eb7565b5b61363d8482856122f8565b509392505050565b600082601f83011261365a57613659611eb2565b5b815161366a848260208601613603565b91505092915050565b6000613686613681846135a6565b611f2d565b905080838252602082019050602084028301858111156136a9576136a86120c9565b5b835b818110156136f057805167ffffffffffffffff8111156136ce576136cd611eb2565b5b8086016136db8982613645565b855260208501945050506020810190506136ab565b5050509392505050565b600082601f83011261370f5761370e611eb2565b5b815161371f848260208601613673565b91505092915050565b60006020828403121561373e5761373d611ded565b5b600082015167ffffffffffffffff81111561375c5761375b611df2565b5b613768848285016136fa565b91505092915050565b6000606082019050613786600083018661208c565b81810360208301526137988185612b64565b905081810360408301526137ac8184612c59565b9050949350505050565b6137bf81611df7565b82525050565b600060c0820190506137da60008301896121f5565b6137e7602083018861208c565b81810360408301526137f98187612b64565b9050818103606083015261380d8186612c59565b905061381c60808301856137b6565b81810360a083015261382e8184612322565b9050979650505050505050565b600081519050919050565b600082825260208201905092915050565b6000819050602082019050919050565b600081519050919050565b600082825260208201905092915050565b600061388e82613867565b6138988185613872565b93506138a88185602086016122f8565b6138b181611ebc565b840191505092915050565b60006138c88383613883565b905092915050565b6000602082019050919050565b60006138e88261383b565b6138f28185613846565b93508360208202850161390485613857565b8060005b85811015613940578484038952815161392185826138bc565b945061392c836138d0565b925060208a01995050600181019050613908565b50829750879550505050505092915050565b600060a082019050613967600083018861208c565b818103602083015261397981876138dd565b9050818103604083015261398d8186612322565b905061399c60608301856137b6565b81810360808301526139ae8184612322565b90509695505050505050565b7f416464726573733a2063616c6c20746f206e6f6e2d636f6e7472616374000000600082015250565b60006139f0601d836127f9565b91506139fb826139ba565b602082019050919050565b60006020820190508181036000830152613a1f816139e3565b9050919050565b6000613a3182612171565b9150613a3c83612171565b9250828203905081811115613a5457613a5361338b565b5b92915050565b6000613a6582612171565b91507fffffffffffffffffffffffffffffffffffffffffffffffffffffffffffffffff8203613a9757613a9661338b565b5b600182019050919050565b6000613aad82612171565b9150613ab883612171565b9250828202613ac681612171565b91508282048414831517613add57613adc61338b565b5b5092915050565b6000613aef82613867565b613af981856127f9565b9350613b098185602086016122f8565b613b1281611ebc565b840191505092915050565b60006020820190508181036000830152613b378184613ae4565b90509291505056fea26469706673582212203668fd2695095e788c63505428b9cce9c640f5bfd00b81c5bb9342fe6654819464736f6c63430008190033",
  "linkReferences": {
    "contracts/LabelUtils.sol": {
      "LabelUtils": [
        {
          "length": 20,
          "start": 2567
        },
        {
          "length": 20,
          "start": 2696
        },
        {
          "length": 20,
          "start": 2879
        },
        {
          "length": 20,
          "start": 3896
        }
      ]
    }
  },
  "deployedLinkReferences": {
    "contracts/LabelUtils.sol": {
      "LabelUtils": [
        {
          "length": 20,
          "start": 1179
        },
        {
          "length": 20,
          "start": 1308
        },
        {
          "length": 20,
          "start": 1491
        },
        {
          "length": 20,
          "start": 2508
        }
      ]
    }
  }
}