{
  "_format": "hh-sol-artifact-1",
  "contractName": "LabelUtils",
  "sourceName": "contracts/LabelUtils.sol",
  "abi": [
    {
      "inputs": [
        {
          "internalType": "bytes",
          "name": "input",
          "type": "bytes"
        }
      ],
      "name": "countLabels",
      "outputs": [
        {
          "internalType": "uint256",
          "name": "",
          "type": "uint256"
        }
      ],
      "stateMutability": "pure",
      "type": "function"
    },
    {
      "inputs": [
        {
          "internalType": "bytes",
          "name": "name",
          "type": "bytes"
        }
      ],
      "name": "extractFirstLabel",
      "outputs": [
        {
          "internalType": "bytes",
          "name": "",
          "type": "bytes"
        }
      ],
      "stateMutability": "pure",
      "type": "function"
    },
    {
      "inputs": [
        {
          "internalType": "bytes",
          "name": "label",
          "type": "bytes"
        }
      ],
      "name": "extractNumericSuffix",
      "outputs": [
        {
          "internalType": "uint256",
          "name": "",
          "type": "uint256"
        }
      ],
      "stateMutability": "pure",
      "type": "function"
    },
    {
      "inputs": [
        {
          "internalType": "bytes",
          "name": "input",
          "type": "bytes"
        }
      ],
      "name": "isNumber",
      "outputs": [
        {
          "internalType": "bool",
          "name": "",
          "type": "bool"
        }
      ],
      "stateMutability": "pure",
      "type": "function"
    }
  ],
  "bytecode": "0x610930610052600b82828239805160001a6073146045577f4e487b7100000000000000000000000000000000000000000000000000000000600052600060045260246000fd5b30600052607381538281f3fe73000000000000000000000000000000000000000030146080604052600436106100565760003560e01c806308dea91d1461005b5780634062ace31461008b57806394bc2db6146100bb578063e5c4cf73146100eb575b600080fd5b610075600480360381019061007091906105cb565b61011b565b604051610082919061062d565b60405180910390f35b6100a560048036038101906100a091906105cb565b610209565b6040516100b2919061062d565b60405180910390f35b6100d560048036038101906100d091906105cb565b61028a565b6040516100e291906106c7565b60405180910390f35b610105600480360381019061010091906105cb565b6103a6565b6040516101129190610704565b60405180910390f35b600080600090506000805b84518110156101be5760008582815181106101445761014361071f565b5b602001015160f81c60f81b60f81c905060308160ff161015801561016c575060398160ff1611155b156101a35760308161017e919061078a565b60ff16600a8561018e91906107bf565b6101989190610801565b9350600192506101b0565b82156101af57506101be565b5b508080600101915050610126565b50806101ff576040517f08c379a00000000000000000000000000000000000000000000000000000000081526004016101f690610892565b60405180910390fd5b8192505050919050565b6000806000905060005b83518110156102805760008482815181106102315761023061071f565b5b602001015160f81c60f81b60f81c60ff169050600081036102525750610280565b828061025d906108b2565b93505060018161026d9190610801565b826102789190610801565b915050610213565b8192505050919050565b60606000808382815181106102a2576102a161071f565b5b602001015160f81c60f81b60f81c905081806102bd906108b2565b92505060008160ff1667ffffffffffffffff8111156102df576102de6104a0565b5b6040519080825280601f01601f1916602001820160405280156103115781602001600182028036833780820191505090505b50905060005b8260ff1681101561039a5785818561032f9190610801565b815181106103405761033f61071f565b5b602001015160f81c60f81b82828151811061035e5761035d61071f565b5b60200101907effffffffffffffffffffffffffffffffffffffffffffffffffffffffffffff1916908160001a9053508080600101915050610317565b50809350505050919050565b600080600090505b825181101561046657603060f81b8382815181106103cf576103ce61071f565b5b602001015160f81c60f81b7effffffffffffffffffffffffffffffffffffffffffffffffffffffffffffff1916108061044a5750603960f81b83828151811061041b5761041a61071f565b5b602001015160f81c60f81b7effffffffffffffffffffffffffffffffffffffffffffffffffffffffffffff1916115b1561045957600091505061046c565b80806001019150506103ae565b50600190505b919050565b6000604051905090565b600080fd5b600080fd5b600080fd5b600080fd5b6000601f19601f8301169050919050565b7f4e487b7100000000000000000000000000000000000000000000000000000000600052604160045260246000fd5b6104d88261048f565b810181811067ffffffffffffffff821117156104f7576104f66104a0565b5b80604052505050565b600061050a610471565b905061051682826104cf565b919050565b600067ffffffffffffffff821115610536576105356104a0565b5b61053f8261048f565b9050602081019050919050565b82818337600083830152505050565b600061056e6105698461051b565b610500565b90508281526020810184848401111561058a5761058961048a565b5b61059584828561054c565b509392505050565b600082601f8301126105b2576105b1610485565b5b81356105c284826020860161055b565b91505092915050565b6000602082840312156105e1576105e061047b565b5b600082013567ffffffffffffffff8111156105ff576105fe610480565b5b61060b8482850161059d565b91505092915050565b6000819050919050565b61062781610614565b82525050565b6000602082019050610642600083018461061e565b92915050565b600081519050919050565b600082825260208201905092915050565b60005b83811015610682578082015181840152602081019050610667565b60008484015250505050565b600061069982610648565b6106a38185610653565b93506106b3818560208601610664565b6106bc8161048f565b840191505092915050565b600060208201905081810360008301526106e1818461068e565b905092915050565b60008115159050919050565b6106fe816106e9565b82525050565b600060208201905061071960008301846106f5565b92915050565b7f4e487b7100000000000000000000000000000000000000000000000000000000600052603260045260246000fd5b600060ff82169050919050565b7f4e487b7100000000000000000000000000000000000000000000000000000000600052601160045260246000fd5b60006107958261074e565b91506107a08361074e565b9250828203905060ff8111156107b9576107b861075b565b5b92915050565b60006107ca82610614565b91506107d583610614565b92508282026107e381610614565b915082820484148315176107fa576107f961075b565b5b5092915050565b600061080c82610614565b915061081783610614565b925082820190508082111561082f5761082e61075b565b5b92915050565b600082825260208201905092915050565b7f4e6f206e756d657269632073756666697820666f756e64000000000000000000600082015250565b600061087c601783610835565b915061088782610846565b602082019050919050565b600060208201905081810360008301526108ab8161086f565b9050919050565b60006108bd82610614565b91507fffffffffffffffffffffffffffffffffffffffffffffffffffffffffffffffff82036108ef576108ee61075b565b5b60018201905091905056fea2646970667358221220ed6a9e0a1dc1e9b8eb0165073e493bfe8b5dec6f75f400aa83268538b52161f964736f6c63430008190033",
  "linkReferences": {},
  "deployedLinkReferences": {}
}